{"contracts/FluentMessaging.sol":{"FluentMessaging":{"abi":[{"inputs":[],"stateMutability":"nonpayable","type":"constructor"},{"inputs":[],"name":"CannotMessageSelf","type":"error"},{"inputs":[],"name":"EmptyMessage","type":"error"},{"inputs":[],"name":"EmptyNickname","type":"error"},{"inputs":[],"name":"EmptyPublicKey","type":"error"},{"inputs":[],"name":"InvalidReceiver","type":"error"},{"inputs":[],"name":"MessageTooLong","type":"error"},{"inputs":[],"name":"ReceiverNotRegistered","type":"error"},{"inputs":[],"name":"UserNotRegistered","type":"error"},{"anonymous":false,"inputs":[{"indexed":true,"internalType":"address","name":"previousOwner","type":"address"},{"indexed":true,"internalType":"address","name":"newOwner","type":"address"}],"name":"OwnershipTransferred","type":"event"},{"anonymous":false,"inputs":[{"indexed":true,"internalType":"uint256","name":"messageId","type":"uint256"},{"indexed":true,"internalType":"address","name":"sender","type":"address"},{"indexed":true,"internalType":"address","name":"receiver","type":"address"},{"indexed":false,"internalType":"uint32","name":"timestamp","type":"uint32"}],"name":"PrivateMessageSent","type":"event"},{"anonymous":false,"inputs":[{"indexed":true,"internalType":"uint256","name":"messageId","type":"uint256"},{"indexed":true,"internalType":"address","name":"sender","type":"address"},{"indexed":false,"internalType":"uint32","name":"timestamp","type":"uint32"}],"name":"PublicMessageSent","type":"event"},{"anonymous":false,"inputs":[{"indexed":true,"internalType":"address","name":"user","type":"address"},{"indexed":false,"internalType":"string","name":"nickname","type":"string"}],"name":"UserRegistered","type":"event"},{"inputs":[{"internalType":"uint256","name":"","type":"uint256"}],"name":"allPublicMessageIds","outputs":[{"internalType":"uint256","name":"","type":"uint256"}],"stateMutability":"view","type":"function"},{"inputs":[{"internalType":"string[]","name":"_contents","type":"string[]"}],"name":"batchSendPublicMessages","outputs":[],"stateMutability":"nonpayable","type":"function"},{"inputs":[{"internalType":"uint256","name":"_offset","type":"uint256"},{"internalType":"uint256","name":"_limit","type":"uint256"}],"name":"getPrivateMessages","outputs":[{"internalType":"address[]","name":"senders","type":"address[]"},{"internalType":"address[]","name":"receivers","type":"address[]"},{"internalType":"string[]","name":"encryptedContents","type":"string[]"},{"internalType":"uint32[]","name":"timestamps","type":"uint32[]"}],"stateMutability":"view","type":"function"},{"inputs":[{"internalType":"uint256","name":"_offset","type":"uint256"},{"internalType":"uint256","name":"_limit","type":"uint256"}],"name":"getPublicMessages","outputs":[{"internalType":"address[]","name":"senders","type":"address[]"},{"internalType":"string[]","name":"contents","type":"string[]"},{"internalType":"uint32[]","name":"timestamps","type":"uint32[]"}],"stateMutability":"view","type":"function"},{"inputs":[],"name":"getTotalPrivateMessages","outputs":[{"internalType":"uint256","name":"","type":"uint256"}],"stateMutability":"view","type":"function"},{"inputs":[],"name":"getTotalPublicMessages","outputs":[{"internalType":"uint256","name":"","type":"uint256"}],"stateMutability":"view","type":"function"},{"inputs":[{"internalType":"address","name":"_user","type":"address"}],"name":"getUser","outputs":[{"components":[{"internalType":"string","name":"publicKey","type":"string"},{"internalType":"string","name":"nickname","type":"string"},{"internalType":"bool","name":"isRegistered","type":"bool"}],"internalType":"struct FluentMessaging.User","name":"","type":"tuple"}],"stateMutability":"view","type":"function"},{"inputs":[{"internalType":"address","name":"_user","type":"address"}],"name":"isUserRegistered","outputs":[{"internalType":"bool","name":"","type":"bool"}],"stateMutability":"view","type":"function"},{"inputs":[],"name":"owner","outputs":[{"internalType":"address","name":"","type":"address"}],"stateMutability":"view","type":"function"},{"inputs":[{"internalType":"uint256","name":"","type":"uint256"}],"name":"privateMessages","outputs":[{"internalType":"address","name":"sender","type":"address"},{"internalType":"address","name":"receiver","type":"address"},{"internalType":"string","name":"encryptedContent","type":"string"},{"internalType":"uint32","name":"timestamp","type":"uint32"}],"stateMutability":"view","type":"function"},{"inputs":[{"internalType":"uint256","name":"","type":"uint256"}],"name":"publicMessages","outputs":[{"internalType":"address","name":"sender","type":"address"},{"internalType":"string","name":"content","type":"string"},{"internalType":"uint32","name":"timestamp","type":"uint32"}],"stateMutability":"view","type":"function"},{"inputs":[{"internalType":"string","name":"_publicKey","type":"string"},{"internalType":"string","name":"_nickname","type":"string"}],"name":"registerUser","outputs":[],"stateMutability":"nonpayable","type":"function"},{"inputs":[],"name":"renounceOwnership","outputs":[],"stateMutability":"nonpayable","type":"function"},{"inputs":[{"internalType":"address","name":"_receiver","type":"address"},{"internalType":"string","name":"_encryptedContent","type":"string"}],"name":"sendPrivateMessage","outputs":[],"stateMutability":"nonpayable","type":"function"},{"inputs":[{"internalType":"string","name":"_content","type":"string"}],"name":"sendPublicMessage","outputs":[],"stateMutability":"nonpayable","type":"function"},{"inputs":[{"internalType":"address","name":"newOwner","type":"address"}],"name":"transferOwnership","outputs":[],"stateMutability":"nonpayable","type":"function"},{"inputs":[{"internalType":"address","name":"","type":"address"},{"internalType":"uint256","name":"","type":"uint256"}],"name":"userPrivateMessages","outputs":[{"internalType":"uint256","name":"","type":"uint256"}],"stateMutability":"view","type":"function"},{"inputs":[{"internalType":"address","name":"","type":"address"}],"name":"users","outputs":[{"internalType":"string","name":"publicKey","type":"string"},{"internalType":"string","name":"nickname","type":"string"},{"internalType":"bool","name":"isRegistered","type":"bool"}],"stateMutability":"view","type":"function"}],"evm":{"bytecode":{"linkReferences":{},"object":"6080806040523461005e57600160008181558154336001600160a01b0319821681179093556001600160a01b0316907f8be0079c531659141344cd1fd0a4f28419497f9722a3daafe3b4186f6b6457e09080a3611c8090816100648239f35b600080fdfe6080604052600436101561001257600080fd5b60003560e01c8063100517be146113fe578063163036a114611386578063163f7522146113445780631d2e4afd14610f925780634db6ee3814610f115780636f77926b14610e4b578063715018a614610df05780638da5cb5b14610dc95780639b2d734214610b48578063a87430ba14610ac6578063b6d6c94c14610a6f578063c2b30c0a14610a38578063dc4726b21461071b578063dcbb8ed9146106d7578063dd1ae75c146106b9578063f2fde38b146105e1578063f45d29b1146105785763fae3bba7146100e257600080fd5b34610573576040366003190112610573576100fb611446565b60243567ffffffffffffffff81116105735761011b90369060040161163b565b33600052600560205260ff60026040600020015416156105495761013d61185a565b6001600160a01b0383161561051f57336001600160a01b038416146104f5576001600160a01b038316600052600560205260ff60026040600020015416156104cb5780156104a1576107d0811161047757600254906fffffffffffffffffffffffffffffffff1960018360801c0160801b166fffffffffffffffffffffffffffffffff83161760025560405192608084019184831067ffffffffffffffff84111761046157610202926040523385526001600160a01b038616602086015236916117aa565b604083015263ffffffff421660608301526fffffffffffffffffffffffffffffffff6fffffffffffffffffffffffffffffffff1960018360801c0160801b1691161760801c600052600460205260406000206001600160a01b038251166001600160a01b0319908183541617825560018201906001600160a01b0360208501511690825416179055604082015180519067ffffffffffffffff8211610461576102ae60028401546114c1565b601f8111610416575b50602090601f831160011461039d57928260609360039363ffffffff96600092610392575b50508160011b9160001990851b1c19161760028201555b019201511663ffffffff19825416179055336000526006602052610321604060002060025460801c90611832565b6001600160a01b0381166000526006602052610347604060002060025460801c90611832565b60025460801c906001600160a01b036040519163ffffffff4216835216917fb1c864ed9e766e43ee42aaba181a0b9ec4d82c1b80377ee99cf5699722dfc41960203393a46001600055005b0151905038806102dc565b906002840160005260206000209160005b601f19851681106103fe57508360039363ffffffff9693600193606097601f198116106103e6575b505050811b0160028201556102f3565b015160001983871b60f8161c191690553880806103d6565b919260206001819286850151815501940192016103ae565b600284016000526020600020601f840160051c81019160208510610457575b601f0160051c01905b81811061044b57506102b7565b6000815560010161043e565b9091508190610435565b634e487b7160e01b600052604160045260246000fd5b60046040517f8fd168ea000000000000000000000000000000000000000000000000000000008152fd5b60046040517fbb1b6580000000000000000000000000000000000000000000000000000000008152fd5b60046040517fdf42c863000000000000000000000000000000000000000000000000000000008152fd5b60046040517fa5b99c89000000000000000000000000000000000000000000000000000000008152fd5b60046040517f1e4ec46b000000000000000000000000000000000000000000000000000000008152fd5b60046040517f2163950f000000000000000000000000000000000000000000000000000000008152fd5b600080fd5b3461057357602036600319011261057357600435600052600360205260406000206001600160a01b0381541663ffffffff60026105b760018501611555565b930154166105d760405193849384526060602085015260608401906115fb565b9060408301520390f35b34610573576020366003190112610573576105fa611446565b610602611752565b6001600160a01b0380911690811561064f57600154826001600160a01b0319821617600155167f8be0079c531659141344cd1fd0a4f28419497f9722a3daafe3b4186f6b6457e0600080a3005b608460405162461bcd60e51b815260206004820152602660248201527f4f776e61626c653a206e6577206f776e657220697320746865207a65726f206160448201527f64647265737300000000000000000000000000000000000000000000000000006064820152fd5b34610573576000366003190112610573576020600754604051908152f35b346105735760003660031901126105735733600052600560205260ff6002604060002001541615610549573360005260066020526020604060002054604051908152f35b346105735760203660031901126105735760043567ffffffffffffffff811161057357366023820112156105735767ffffffffffffffff81600401351161057357366024826004013560051b830101116105735733600052600560205260ff60026040600020015416156105495761079161185a565b600a8160040135116104775760005b816004013581106107b2576001600055005b6107c481836004013560248501611c08565b9050156104a1576103e86107e082846004013560248601611c08565b9050116104775761084a6fffffffffffffffffffffffffffffffff196002546fffffffffffffffffffffffffffffffff60018183160116918291161760025561083183856004013560248701611c08565b929060405193610840856114fb565b33855236916117aa565b906020830191825263ffffffff4216604084015260005260036020526040600020906001600160a01b038351166001600160a01b03198354161782555180519067ffffffffffffffff8211610461576108a660018401546114c1565b601f81116109f1575b50602090601f83116001146109755760019594938363ffffffff9460409460029460009261096a575b5050600019600383901b1c191690881b17818801555b019201511663ffffffff1982541617905561091c6fffffffffffffffffffffffffffffffff600254166117f1565b6fffffffffffffffffffffffffffffffff600254166040519063ffffffff421682527fd770237fbe5043eee1048691f151c579ca1e2a196f23c7a1346eec755cd3ffe360203393a3016107a0565b015190508a806108d8565b906001840160005260206000209160005b601f19851681106109d9575093600184604094600294839a999863ffffffff98601f198116106109c0575b505050811b01878201556108ee565b015160001960f88460031b161c191690558a80806109b1565b91926020600181928685015181550194019201610986565b600184016000526020600020601f840160051c810160208510610a31575b601f830160051c82018110610a255750506108af565b60008155600101610a0f565b5080610a0f565b346105735760203660031901126105735760043560075481101561057357610a6160209161145c565b90546040519160031b1c8152f35b3461057357610aa6610ab4610ac2610a8f610a8936611669565b90611987565b91939060405195869560608752606087019061167f565b9085820360208701526116bc565b908382036040850152611718565b0390f35b34610573576020366003190112610573576001600160a01b03610ae7611446565b166000526005602052610b2e6040600020610b0181611555565b90610b3c60ff6002610b1560018501611555565b93015416916040519485946060865260608601906115fb565b9084820360208601526115fb565b90151560408301520390f35b34610573576020806003193601126105735767ffffffffffffffff9060043582811161057357610b7c90369060040161163b565b9190913360005260058252600260ff8160406000200154161561054957610ba161185a565b81156104a1576103e88211610477576fffffffffffffffffffffffffffffffff198154956fffffffffffffffffffffffffffffffff93600197858981831601169384911617845563ffffffff91610c028342169860405193610840856114fb565b908783019182526040830194898652600052600388526001600160a01b0360406000209351166001600160a01b03198454161783558983019151805191821161046157610c4f83546114c1565b601f8111610d80575b508890601f8311600114610ce75791808897969593927fd770237fbe5043eee1048691f151c579ca1e2a196f23c7a1346eec755cd3ffe39a999593600092610cdc575b5050600019600383901b1c1916908c1b1790555b0191511663ffffffff19825416179055610ccb828254166117f1565b5416916040519384523393a3600055005b015190508d80610c9b565b8b9291601f19831691856000528b6000209260005b8d828210610d61575050918a999897959391857fd770237fbe5043eee1048691f151c579ca1e2a196f23c7a1346eec755cd3ffe39d9c98969410610d48575b505050811b019055610caf565b015160001960f88460031b161c191690558d8080610d3b565b91929395968291958786015181550195019301908e9594939291610cfc565b8360005289600020601f840160051c8101918b8510610dbf575b601f0160051c01908c905b828110610db3575050610c58565b60008155018c90610da5565b9091508190610d9a565b346105735760003660031901126105735760206001600160a01b0360015416604051908152f35b3461057357600036600319011261057357610e09611752565b60006001600160a01b036001546001600160a01b03198116600155167f8be0079c531659141344cd1fd0a4f28419497f9722a3daafe3b4186f6b6457e08280a3005b3461057357602080600319360112610573576060906001600160a01b03610e70611446565b600060408051610e7f816114fb565b868152868682015201521660005260058152604060002090610f0460405192610ea7846114fb565b610eb081611555565b8452610ef160ff6002610ec560018501611555565b9386880194855201541693604086019415158552604051968796828852519187015260808601906115fb565b9051848203601f190160408601526115fb565b9051151560608301520390f35b3461057357610f1f36611669565b33600052600560205260ff600260406000200154161561054957610ac2610f84610f4f610f7693610f6895611aa1565b939295909160405197889760808952608089019061167f565b90878203602089015261167f565b9085820360408701526116bc565b908382036060850152611718565b346105735760403660031901126105735760043567ffffffffffffffff811161057357610fc390369060040161163b565b60243567ffffffffffffffff811161057357610fe390369060040161163b565b9092821561131a5781156112f0576110099060405193611002856114fb565b36916117aa565b82526110163682856117aa565b602083015260016040830152336000526005602052604060002092825192835167ffffffffffffffff8111610461578061105087546114c1565b95601f9687811161129f575b506020908783116001146112395760009261122e575b50508160011b916000199060031b1c19161785555b6001850194602082015195865167ffffffffffffffff8111610461576110ad82546114c1565b8781116111e9575b50602087821160011461115757926040959493928260029388957f48cac28ad4dc618e15f4c2dd5e97751182f166de97b25618318b2112aa951a2f9b9c60009261114c575b50508160011b916000199060031b1c19161790555b01910151151560ff8019835416911617905582825193849260208452816020850152848401376000828201840152339501601f19168101030190a2005b015190508c806110fa565b601f198216988360005260206000209960005b8181106111d15750837f48cac28ad4dc618e15f4c2dd5e97751182f166de97b25618318b2112aa951a2f9a9b6040999897948a9794600297600195106111b8575b505050811b01905561110f565b015160001960f88460031b161c191690558c80806111ab565b838301518c556001909b019a6020938401930161116a565b8260005260206000208880840160051c82019260208510611225575b0160051c01905b81811061121957506110b5565b6000815560010161120c565b92508192611205565b015190508780611072565b6000898152602081209350601f198516905b818110611287575090846001959493921061126e575b505050811b018555611087565b015160001960f88460031b161c19169055878080611261565b9293602060018192878601518155019501930161124b565b9091508760005260206000208780850160051c820192602086106112e7575b9085949392910160051c01905b8181106112d8575061105c565b600081558493506001016112cb565b925081926112be565b60046040517fc15fcd5e000000000000000000000000000000000000000000000000000000008152fd5b60046040517f4f42be3d000000000000000000000000000000000000000000000000000000008152fd5b34610573576020366003190112610573576001600160a01b03611365611446565b166000526005602052602060ff600260406000200154166040519015158152f35b3461057357602036600319011261057357600435600052600460205260406000206001600160a01b038082541690600183015416916113f463ffffffff60036113d160028501611555565b9301541691604051948594855260208501526080604085015260808401906115fb565b9060608301520390f35b3461057357604036600319011261057357611417611446565b6001600160a01b03602435911660005260066020526040600020805482101561057357602091610a61916114a9565b600435906001600160a01b038216820361057357565b6007548110156114935760076000527fa66cc928b5edb82af9bd49922954155ab7b0942694bea4ce44661d9a8736c6880190600090565b634e487b7160e01b600052603260045260246000fd5b80548210156114935760005260206000200190600090565b90600182811c921680156114f1575b60208310146114db57565b634e487b7160e01b600052602260045260246000fd5b91607f16916114d0565b6060810190811067ffffffffffffffff82111761046157604052565b6020810190811067ffffffffffffffff82111761046157604052565b90601f8019910116810190811067ffffffffffffffff82111761046157604052565b9060405191826000825492611569846114c1565b9081845260019485811690816000146115d85750600114611595575b505061159392500383611533565b565b9093915060005260209081600020936000915b8183106115c057505061159393508201013880611585565b855488840185015294850194879450918301916115a8565b91505061159394506020925060ff191682840152151560051b8201013880611585565b919082519283825260005b848110611627575050826000602080949584010152601f8019910116010190565b602081830181015184830182015201611606565b9181601f840112156105735782359167ffffffffffffffff8311610573576020838186019501011161057357565b6040906003190112610573576004359060243590565b90815180825260208080930193019160005b82811061169f575050505090565b83516001600160a01b031685529381019392810192600101611691565b908082519081815260208091019281808460051b8301019501936000915b8483106116ea5750505050505090565b9091929394958480611708600193601f198682030187528a516115fb565b98019301930191949392906116da565b90815180825260208080930193019160005b828110611738575050505090565b835163ffffffff168552938101939281019260010161172a565b6001600160a01b0360015416330361176657565b606460405162461bcd60e51b815260206004820152602060248201527f4f776e61626c653a2063616c6c6572206973206e6f7420746865206f776e65726044820152fd5b92919267ffffffffffffffff821161046157604051916117d4601f8201601f191660200184611533565b829481845281830111610573578281602093846000960137010152565b600754906801000000000000000082101561046157611819826001611593940160075561145c565b90919082549060031b91821b91600019901b1916179055565b90815491680100000000000000008310156104615782611819916001611593950181556114a9565b60026000541461186b576002600055565b606460405162461bcd60e51b815260206004820152601f60248201527f5265656e7472616e637947756172643a207265656e7472616e742063616c6c006044820152fd5b67ffffffffffffffff81116104615760051b60200190565b906118d1826118af565b6118de6040519182611533565b82815280926118ef601f19916118af565b0190602036910137565b90611903826118af565b6119106040519182611533565b8281528092611921601f19916118af565b019060005b82811061193257505050565b806060602080938501015201611926565b9190820180921161195057565b634e487b7160e01b600052601160045260246000fd5b9190820391821161195057565b80518210156114935760209160051b010190565b6007549182821015611a625761199d9082611943565b81838211611a5a575b6119af91611966565b926119b9846118c7565b936119c3816118f9565b936119cd826118c7565b93600091825b8481106119e1575050505050565b6001906119f584820184036000190161145c565b9054600391821b1c865260205263ffffffff6002604087208c611a23856001600160a01b0384541692611973565b528b611a3a85611a34888501611555565b92611973565b52611a45848d611973565b50015416611a53828a611973565b52016119d3565b8391506119a6565b505050604051611a7181611517565b6000815260405191611a8283611517565b6000835260405191611a9383611517565b600083526000368137929190565b9190916000923384526020926006845260408086209485549384861015611bbc57611acc9086611943565b85858211611bb4575b611ade91611966565b91611ae8836118c7565b97611af2846118c7565b97611afc856118f9565b97611b06866118c7565b978b845b8b8d8a8310611b20575050505050505050505050565b600193611b9d8463ffffffff948d94611b80838f8f8f8f8f91611b4f91600493876000199201900301906114a9565b9b905460039c8d1b1c83525220966001600160a01b0390611b7483838b541692611973565b528b8801541692611973565b52611b8d60028501611555565b611b978383611973565b52611973565b50015416611bab828d611973565b52018c90611b0a565b859150611ad5565b5050935093915050815192611bd084611517565b818452825193611bdf85611517565b828552835193611bee85611517565b8385525192611bfc84611517565b80845236813793929190565b91908110156114935760051b81013590601e198136030182121561057357019081359167ffffffffffffffff831161057357602001823603811361057357919056fea26469706673582212201e5fe082a8a5bd7ff8a0e75ffb38f7ab4f65f9a6f908c33ee761a49ce5cbcb7364736f6c63430008130033","opcodes":"PUSH1 0x80 DUP1 PUSH1 0x40 MSTORE CALLVALUE PUSH2 0x5E JUMPI PUSH1 0x1 PUSH1 0x0 DUP2 DUP2 SSTORE DUP2 SLOAD CALLER PUSH1 0x1 PUSH1 0x1 PUSH1 0xA0 SHL SUB NOT DUP3 AND DUP2 OR SWAP1 SWAP4 SSTORE PUSH1 0x1 PUSH1 0x1 PUSH1 0xA0 SHL SUB AND SWAP1 PUSH32 0x8BE0079C531659141344CD1FD0A4F28419497F9722A3DAAFE3B4186F6B6457E0 SWAP1 DUP1 LOG3 PUSH2 0x1C80 SWAP1 DUP2 PUSH2 0x64 DUP3 CODECOPY RETURN JUMPDEST PUSH1 0x0 DUP1 REVERT INVALID PUSH1 0x80 PUSH1 0x40 MSTORE PUSH1 0x4 CALLDATASIZE LT ISZERO PUSH2 0x12 JUMPI PUSH1 0x0 DUP1 REVERT JUMPDEST PUSH1 0x0 CALLDATALOAD PUSH1 0xE0 SHR DUP1 PUSH4 0x100517BE EQ PUSH2 0x13FE JUMPI DUP1 PUSH4 0x163036A1 EQ PUSH2 0x1386 JUMPI DUP1 PUSH4 0x163F7522 EQ PUSH2 0x1344 JUMPI DUP1 PUSH4 0x1D2E4AFD EQ PUSH2 0xF92 JUMPI DUP1 PUSH4 0x4DB6EE38 EQ PUSH2 0xF11 JUMPI DUP1 PUSH4 0x6F77926B EQ PUSH2 0xE4B JUMPI DUP1 PUSH4 0x715018A6 EQ PUSH2 0xDF0 JUMPI DUP1 PUSH4 0x8DA5CB5B EQ PUSH2 0xDC9 JUMPI DUP1 PUSH4 0x9B2D7342 EQ PUSH2 0xB48 JUMPI DUP1 PUSH4 0xA87430BA EQ PUSH2 0xAC6 JUMPI DUP1 PUSH4 0xB6D6C94C EQ PUSH2 0xA6F JUMPI DUP1 PUSH4 0xC2B30C0A EQ PUSH2 0xA38 JUMPI DUP1 PUSH4 0xDC4726B2 EQ PUSH2 0x71B JUMPI DUP1 PUSH4 0xDCBB8ED9 EQ PUSH2 0x6D7 JUMPI DUP1 PUSH4 0xDD1AE75C EQ PUSH2 0x6B9 JUMPI DUP1 PUSH4 0xF2FDE38B EQ PUSH2 0x5E1 JUMPI DUP1 PUSH4 0xF45D29B1 EQ PUSH2 0x578 JUMPI PUSH4 0xFAE3BBA7 EQ PUSH2 0xE2 JUMPI PUSH1 0x0 DUP1 REVERT JUMPDEST CALLVALUE PUSH2 0x573 JUMPI PUSH1 0x40 CALLDATASIZE PUSH1 0x3 NOT ADD SLT PUSH2 0x573 JUMPI PUSH2 0xFB PUSH2 0x1446 JUMP JUMPDEST PUSH1 0x24 CALLDATALOAD PUSH8 0xFFFFFFFFFFFFFFFF DUP2 GT PUSH2 0x573 JUMPI PUSH2 0x11B SWAP1 CALLDATASIZE SWAP1 PUSH1 0x4 ADD PUSH2 0x163B JUMP JUMPDEST CALLER PUSH1 0x0 MSTORE PUSH1 0x5 PUSH1 0x20 MSTORE PUSH1 0xFF PUSH1 0x2 PUSH1 0x40 PUSH1 0x0 KECCAK256 ADD SLOAD AND ISZERO PUSH2 0x549 JUMPI PUSH2 0x13D PUSH2 0x185A JUMP JUMPDEST PUSH1 0x1 PUSH1 0x1 PUSH1 0xA0 SHL SUB DUP4 AND ISZERO PUSH2 0x51F JUMPI CALLER PUSH1 0x1 PUSH1 0x1 PUSH1 0xA0 SHL SUB DUP5 AND EQ PUSH2 0x4F5 JUMPI PUSH1 0x1 PUSH1 0x1 PUSH1 0xA0 SHL SUB DUP4 AND PUSH1 0x0 MSTORE PUSH1 0x5 PUSH1 0x20 MSTORE PUSH1 0xFF PUSH1 0x2 PUSH1 0x40 PUSH1 0x0 KECCAK256 ADD SLOAD AND ISZERO PUSH2 0x4CB JUMPI DUP1 ISZERO PUSH2 0x4A1 JUMPI PUSH2 0x7D0 DUP2 GT PUSH2 0x477 JUMPI PUSH1 0x2 SLOAD SWAP1 PUSH16 0xFFFFFFFFFFFFFFFFFFFFFFFFFFFFFFFF NOT PUSH1 0x1 DUP4 PUSH1 0x80 SHR ADD PUSH1 0x80 SHL AND PUSH16 0xFFFFFFFFFFFFFFFFFFFFFFFFFFFFFFFF DUP4 AND OR PUSH1 0x2 SSTORE PUSH1 0x40 MLOAD SWAP3 PUSH1 0x80 DUP5 ADD SWAP2 DUP5 DUP4 LT PUSH8 0xFFFFFFFFFFFFFFFF DUP5 GT OR PUSH2 0x461 JUMPI PUSH2 0x202 SWAP3 PUSH1 0x40 MSTORE CALLER DUP6 MSTORE PUSH1 0x1 PUSH1 0x1 PUSH1 0xA0 SHL SUB DUP7 AND PUSH1 0x20 DUP7 ADD MSTORE CALLDATASIZE SWAP2 PUSH2 0x17AA JUMP JUMPDEST PUSH1 0x40 DUP4 ADD MSTORE PUSH4 0xFFFFFFFF TIMESTAMP AND PUSH1 0x60 DUP4 ADD MSTORE PUSH16 0xFFFFFFFFFFFFFFFFFFFFFFFFFFFFFFFF PUSH16 0xFFFFFFFFFFFFFFFFFFFFFFFFFFFFFFFF NOT PUSH1 0x1 DUP4 PUSH1 0x80 SHR ADD PUSH1 0x80 SHL AND SWAP2 AND OR PUSH1 0x80 SHR PUSH1 0x0 MSTORE PUSH1 0x4 PUSH1 0x20 MSTORE PUSH1 0x40 PUSH1 0x0 KECCAK256 PUSH1 0x1 PUSH1 0x1 PUSH1 0xA0 SHL SUB DUP3 MLOAD AND PUSH1 0x1 PUSH1 0x1 PUSH1 0xA0 SHL SUB NOT SWAP1 DUP2 DUP4 SLOAD AND OR DUP3 SSTORE PUSH1 0x1 DUP3 ADD SWAP1 PUSH1 0x1 PUSH1 0x1 PUSH1 0xA0 SHL SUB PUSH1 0x20 DUP6 ADD MLOAD AND SWAP1 DUP3 SLOAD AND OR SWAP1 SSTORE PUSH1 0x40 DUP3 ADD MLOAD DUP1 MLOAD SWAP1 PUSH8 0xFFFFFFFFFFFFFFFF DUP3 GT PUSH2 0x461 JUMPI PUSH2 0x2AE PUSH1 0x2 DUP5 ADD SLOAD PUSH2 0x14C1 JUMP JUMPDEST PUSH1 0x1F DUP2 GT PUSH2 0x416 JUMPI JUMPDEST POP PUSH1 0x20 SWAP1 PUSH1 0x1F DUP4 GT PUSH1 0x1 EQ PUSH2 0x39D JUMPI SWAP3 DUP3 PUSH1 0x60 SWAP4 PUSH1 0x3 SWAP4 PUSH4 0xFFFFFFFF SWAP7 PUSH1 0x0 SWAP3 PUSH2 0x392 JUMPI JUMPDEST POP POP DUP2 PUSH1 0x1 SHL SWAP2 PUSH1 0x0 NOT SWAP1 DUP6 SHL SHR NOT AND OR PUSH1 0x2 DUP3 ADD SSTORE JUMPDEST ADD SWAP3 ADD MLOAD AND PUSH4 0xFFFFFFFF NOT DUP3 SLOAD AND OR SWAP1 SSTORE CALLER PUSH1 0x0 MSTORE PUSH1 0x6 PUSH1 0x20 MSTORE PUSH2 0x321 PUSH1 0x40 PUSH1 0x0 KECCAK256 PUSH1 0x2 SLOAD PUSH1 0x80 SHR SWAP1 PUSH2 0x1832 JUMP JUMPDEST PUSH1 0x1 PUSH1 0x1 PUSH1 0xA0 SHL SUB DUP2 AND PUSH1 0x0 MSTORE PUSH1 0x6 PUSH1 0x20 MSTORE PUSH2 0x347 PUSH1 0x40 PUSH1 0x0 KECCAK256 PUSH1 0x2 SLOAD PUSH1 0x80 SHR SWAP1 PUSH2 0x1832 JUMP JUMPDEST PUSH1 0x2 SLOAD PUSH1 0x80 SHR SWAP1 PUSH1 0x1 PUSH1 0x1 PUSH1 0xA0 SHL SUB PUSH1 0x40 MLOAD SWAP2 PUSH4 0xFFFFFFFF TIMESTAMP AND DUP4 MSTORE AND SWAP2 PUSH32 0xB1C864ED9E766E43EE42AABA181A0B9EC4D82C1B80377EE99CF5699722DFC419 PUSH1 0x20 CALLER SWAP4 LOG4 PUSH1 0x1 PUSH1 0x0 SSTORE STOP JUMPDEST ADD MLOAD SWAP1 POP CODESIZE DUP1 PUSH2 0x2DC JUMP JUMPDEST SWAP1 PUSH1 0x2 DUP5 ADD PUSH1 0x0 MSTORE PUSH1 0x20 PUSH1 0x0 KECCAK256 SWAP2 PUSH1 0x0 JUMPDEST PUSH1 0x1F NOT DUP6 AND DUP2 LT PUSH2 0x3FE JUMPI POP DUP4 PUSH1 0x3 SWAP4 PUSH4 0xFFFFFFFF SWAP7 SWAP4 PUSH1 0x1 SWAP4 PUSH1 0x60 SWAP8 PUSH1 0x1F NOT DUP2 AND LT PUSH2 0x3E6 JUMPI JUMPDEST POP POP POP DUP2 SHL ADD PUSH1 0x2 DUP3 ADD SSTORE PUSH2 0x2F3 JUMP JUMPDEST ADD MLOAD PUSH1 0x0 NOT DUP4 DUP8 SHL PUSH1 0xF8 AND SHR NOT AND SWAP1 SSTORE CODESIZE DUP1 DUP1 PUSH2 0x3D6 JUMP JUMPDEST SWAP2 SWAP3 PUSH1 0x20 PUSH1 0x1 DUP2 SWAP3 DUP7 DUP6 ADD MLOAD DUP2 SSTORE ADD SWAP5 ADD SWAP3 ADD PUSH2 0x3AE JUMP JUMPDEST PUSH1 0x2 DUP5 ADD PUSH1 0x0 MSTORE PUSH1 0x20 PUSH1 0x0 KECCAK256 PUSH1 0x1F DUP5 ADD PUSH1 0x5 SHR DUP2 ADD SWAP2 PUSH1 0x20 DUP6 LT PUSH2 0x457 JUMPI JUMPDEST PUSH1 0x1F ADD PUSH1 0x5 SHR ADD SWAP1 JUMPDEST DUP2 DUP2 LT PUSH2 0x44B JUMPI POP PUSH2 0x2B7 JUMP JUMPDEST PUSH1 0x0 DUP2 SSTORE PUSH1 0x1 ADD PUSH2 0x43E JUMP JUMPDEST SWAP1 SWAP2 POP DUP2 SWAP1 PUSH2 0x435 JUMP JUMPDEST PUSH4 0x4E487B71 PUSH1 0xE0 SHL PUSH1 0x0 MSTORE PUSH1 0x41 PUSH1 0x4 MSTORE PUSH1 0x24 PUSH1 0x0 REVERT JUMPDEST PUSH1 0x4 PUSH1 0x40 MLOAD PUSH32 0x8FD168EA00000000000000000000000000000000000000000000000000000000 DUP2 MSTORE REVERT JUMPDEST PUSH1 0x4 PUSH1 0x40 MLOAD PUSH32 0xBB1B658000000000000000000000000000000000000000000000000000000000 DUP2 MSTORE REVERT JUMPDEST PUSH1 0x4 PUSH1 0x40 MLOAD PUSH32 0xDF42C86300000000000000000000000000000000000000000000000000000000 DUP2 MSTORE REVERT JUMPDEST PUSH1 0x4 PUSH1 0x40 MLOAD PUSH32 0xA5B99C8900000000000000000000000000000000000000000000000000000000 DUP2 MSTORE REVERT JUMPDEST PUSH1 0x4 PUSH1 0x40 MLOAD PUSH32 0x1E4EC46B00000000000000000000000000000000000000000000000000000000 DUP2 MSTORE REVERT JUMPDEST PUSH1 0x4 PUSH1 0x40 MLOAD PUSH32 0x2163950F00000000000000000000000000000000000000000000000000000000 DUP2 MSTORE REVERT JUMPDEST PUSH1 0x0 DUP1 REVERT JUMPDEST CALLVALUE PUSH2 0x573 JUMPI PUSH1 0x20 CALLDATASIZE PUSH1 0x3 NOT ADD SLT PUSH2 0x573 JUMPI PUSH1 0x4 CALLDATALOAD PUSH1 0x0 MSTORE PUSH1 0x3 PUSH1 0x20 MSTORE PUSH1 0x40 PUSH1 0x0 KECCAK256 PUSH1 0x1 PUSH1 0x1 PUSH1 0xA0 SHL SUB DUP2 SLOAD AND PUSH4 0xFFFFFFFF PUSH1 0x2 PUSH2 0x5B7 PUSH1 0x1 DUP6 ADD PUSH2 0x1555 JUMP JUMPDEST SWAP4 ADD SLOAD AND PUSH2 0x5D7 PUSH1 0x40 MLOAD SWAP4 DUP5 SWAP4 DUP5 MSTORE PUSH1 0x60 PUSH1 0x20 DUP6 ADD MSTORE PUSH1 0x60 DUP5 ADD SWAP1 PUSH2 0x15FB JUMP JUMPDEST SWAP1 PUSH1 0x40 DUP4 ADD MSTORE SUB SWAP1 RETURN JUMPDEST CALLVALUE PUSH2 0x573 JUMPI PUSH1 0x20 CALLDATASIZE PUSH1 0x3 NOT ADD SLT PUSH2 0x573 JUMPI PUSH2 0x5FA PUSH2 0x1446 JUMP JUMPDEST PUSH2 0x602 PUSH2 0x1752 JUMP JUMPDEST PUSH1 0x1 PUSH1 0x1 PUSH1 0xA0 SHL SUB DUP1 SWAP2 AND SWAP1 DUP2 ISZERO PUSH2 0x64F JUMPI PUSH1 0x1 SLOAD DUP3 PUSH1 0x1 PUSH1 0x1 PUSH1 0xA0 SHL SUB NOT DUP3 AND OR PUSH1 0x1 SSTORE AND PUSH32 0x8BE0079C531659141344CD1FD0A4F28419497F9722A3DAAFE3B4186F6B6457E0 PUSH1 0x0 DUP1 LOG3 STOP JUMPDEST PUSH1 0x84 PUSH1 0x40 MLOAD PUSH3 0x461BCD PUSH1 0xE5 SHL DUP2 MSTORE PUSH1 0x20 PUSH1 0x4 DUP3 ADD MSTORE PUSH1 0x26 PUSH1 0x24 DUP3 ADD MSTORE PUSH32 0x4F776E61626C653A206E6577206F776E657220697320746865207A65726F2061 PUSH1 0x44 DUP3 ADD MSTORE PUSH32 0x6464726573730000000000000000000000000000000000000000000000000000 PUSH1 0x64 DUP3 ADD MSTORE REVERT JUMPDEST CALLVALUE PUSH2 0x573 JUMPI PUSH1 0x0 CALLDATASIZE PUSH1 0x3 NOT ADD SLT PUSH2 0x573 JUMPI PUSH1 0x20 PUSH1 0x7 SLOAD PUSH1 0x40 MLOAD SWAP1 DUP2 MSTORE RETURN JUMPDEST CALLVALUE PUSH2 0x573 JUMPI PUSH1 0x0 CALLDATASIZE PUSH1 0x3 NOT ADD SLT PUSH2 0x573 JUMPI CALLER PUSH1 0x0 MSTORE PUSH1 0x5 PUSH1 0x20 MSTORE PUSH1 0xFF PUSH1 0x2 PUSH1 0x40 PUSH1 0x0 KECCAK256 ADD SLOAD AND ISZERO PUSH2 0x549 JUMPI CALLER PUSH1 0x0 MSTORE PUSH1 0x6 PUSH1 0x20 MSTORE PUSH1 0x20 PUSH1 0x40 PUSH1 0x0 KECCAK256 SLOAD PUSH1 0x40 MLOAD SWAP1 DUP2 MSTORE RETURN JUMPDEST CALLVALUE PUSH2 0x573 JUMPI PUSH1 0x20 CALLDATASIZE PUSH1 0x3 NOT ADD SLT PUSH2 0x573 JUMPI PUSH1 0x4 CALLDATALOAD PUSH8 0xFFFFFFFFFFFFFFFF DUP2 GT PUSH2 0x573 JUMPI CALLDATASIZE PUSH1 0x23 DUP3 ADD SLT ISZERO PUSH2 0x573 JUMPI PUSH8 0xFFFFFFFFFFFFFFFF DUP2 PUSH1 0x4 ADD CALLDATALOAD GT PUSH2 0x573 JUMPI CALLDATASIZE PUSH1 0x24 DUP3 PUSH1 0x4 ADD CALLDATALOAD PUSH1 0x5 SHL DUP4 ADD ADD GT PUSH2 0x573 JUMPI CALLER PUSH1 0x0 MSTORE PUSH1 0x5 PUSH1 0x20 MSTORE PUSH1 0xFF PUSH1 0x2 PUSH1 0x40 PUSH1 0x0 KECCAK256 ADD SLOAD AND ISZERO PUSH2 0x549 JUMPI PUSH2 0x791 PUSH2 0x185A JUMP JUMPDEST PUSH1 0xA DUP2 PUSH1 0x4 ADD CALLDATALOAD GT PUSH2 0x477 JUMPI PUSH1 0x0 JUMPDEST DUP2 PUSH1 0x4 ADD CALLDATALOAD DUP2 LT PUSH2 0x7B2 JUMPI PUSH1 0x1 PUSH1 0x0 SSTORE STOP JUMPDEST PUSH2 0x7C4 DUP2 DUP4 PUSH1 0x4 ADD CALLDATALOAD PUSH1 0x24 DUP6 ADD PUSH2 0x1C08 JUMP JUMPDEST SWAP1 POP ISZERO PUSH2 0x4A1 JUMPI PUSH2 0x3E8 PUSH2 0x7E0 DUP3 DUP5 PUSH1 0x4 ADD CALLDATALOAD PUSH1 0x24 DUP7 ADD PUSH2 0x1C08 JUMP JUMPDEST SWAP1 POP GT PUSH2 0x477 JUMPI PUSH2 0x84A PUSH16 0xFFFFFFFFFFFFFFFFFFFFFFFFFFFFFFFF NOT PUSH1 0x2 SLOAD PUSH16 0xFFFFFFFFFFFFFFFFFFFFFFFFFFFFFFFF PUSH1 0x1 DUP2 DUP4 AND ADD AND SWAP2 DUP3 SWAP2 AND OR PUSH1 0x2 SSTORE PUSH2 0x831 DUP4 DUP6 PUSH1 0x4 ADD CALLDATALOAD PUSH1 0x24 DUP8 ADD PUSH2 0x1C08 JUMP JUMPDEST SWAP3 SWAP1 PUSH1 0x40 MLOAD SWAP4 PUSH2 0x840 DUP6 PUSH2 0x14FB JUMP JUMPDEST CALLER DUP6 MSTORE CALLDATASIZE SWAP2 PUSH2 0x17AA JUMP JUMPDEST SWAP1 PUSH1 0x20 DUP4 ADD SWAP2 DUP3 MSTORE PUSH4 0xFFFFFFFF TIMESTAMP AND PUSH1 0x40 DUP5 ADD MSTORE PUSH1 0x0 MSTORE PUSH1 0x3 PUSH1 0x20 MSTORE PUSH1 0x40 PUSH1 0x0 KECCAK256 SWAP1 PUSH1 0x1 PUSH1 0x1 PUSH1 0xA0 SHL SUB DUP4 MLOAD AND PUSH1 0x1 PUSH1 0x1 PUSH1 0xA0 SHL SUB NOT DUP4 SLOAD AND OR DUP3 SSTORE MLOAD DUP1 MLOAD SWAP1 PUSH8 0xFFFFFFFFFFFFFFFF DUP3 GT PUSH2 0x461 JUMPI PUSH2 0x8A6 PUSH1 0x1 DUP5 ADD SLOAD PUSH2 0x14C1 JUMP JUMPDEST PUSH1 0x1F DUP2 GT PUSH2 0x9F1 JUMPI JUMPDEST POP PUSH1 0x20 SWAP1 PUSH1 0x1F DUP4 GT PUSH1 0x1 EQ PUSH2 0x975 JUMPI PUSH1 0x1 SWAP6 SWAP5 SWAP4 DUP4 PUSH4 0xFFFFFFFF SWAP5 PUSH1 0x40 SWAP5 PUSH1 0x2 SWAP5 PUSH1 0x0 SWAP3 PUSH2 0x96A JUMPI JUMPDEST POP POP PUSH1 0x0 NOT PUSH1 0x3 DUP4 SWAP1 SHL SHR NOT AND SWAP1 DUP9 SHL OR DUP2 DUP9 ADD SSTORE JUMPDEST ADD SWAP3 ADD MLOAD AND PUSH4 0xFFFFFFFF NOT DUP3 SLOAD AND OR SWAP1 SSTORE PUSH2 0x91C PUSH16 0xFFFFFFFFFFFFFFFFFFFFFFFFFFFFFFFF PUSH1 0x2 SLOAD AND PUSH2 0x17F1 JUMP JUMPDEST PUSH16 0xFFFFFFFFFFFFFFFFFFFFFFFFFFFFFFFF PUSH1 0x2 SLOAD AND PUSH1 0x40 MLOAD SWAP1 PUSH4 0xFFFFFFFF TIMESTAMP AND DUP3 MSTORE PUSH32 0xD770237FBE5043EEE1048691F151C579CA1E2A196F23C7A1346EEC755CD3FFE3 PUSH1 0x20 CALLER SWAP4 LOG3 ADD PUSH2 0x7A0 JUMP JUMPDEST ADD MLOAD SWAP1 POP DUP11 DUP1 PUSH2 0x8D8 JUMP JUMPDEST SWAP1 PUSH1 0x1 DUP5 ADD PUSH1 0x0 MSTORE PUSH1 0x20 PUSH1 0x0 KECCAK256 SWAP2 PUSH1 0x0 JUMPDEST PUSH1 0x1F NOT DUP6 AND DUP2 LT PUSH2 0x9D9 JUMPI POP SWAP4 PUSH1 0x1 DUP5 PUSH1 0x40 SWAP5 PUSH1 0x2 SWAP5 DUP4 SWAP11 SWAP10 SWAP9 PUSH4 0xFFFFFFFF SWAP9 PUSH1 0x1F NOT DUP2 AND LT PUSH2 0x9C0 JUMPI JUMPDEST POP POP POP DUP2 SHL ADD DUP8 DUP3 ADD SSTORE PUSH2 0x8EE JUMP JUMPDEST ADD MLOAD PUSH1 0x0 NOT PUSH1 0xF8 DUP5 PUSH1 0x3 SHL AND SHR NOT AND SWAP1 SSTORE DUP11 DUP1 DUP1 PUSH2 0x9B1 JUMP JUMPDEST SWAP2 SWAP3 PUSH1 0x20 PUSH1 0x1 DUP2 SWAP3 DUP7 DUP6 ADD MLOAD DUP2 SSTORE ADD SWAP5 ADD SWAP3 ADD PUSH2 0x986 JUMP JUMPDEST PUSH1 0x1 DUP5 ADD PUSH1 0x0 MSTORE PUSH1 0x20 PUSH1 0x0 KECCAK256 PUSH1 0x1F DUP5 ADD PUSH1 0x5 SHR DUP2 ADD PUSH1 0x20 DUP6 LT PUSH2 0xA31 JUMPI JUMPDEST PUSH1 0x1F DUP4 ADD PUSH1 0x5 SHR DUP3 ADD DUP2 LT PUSH2 0xA25 JUMPI POP POP PUSH2 0x8AF JUMP JUMPDEST PUSH1 0x0 DUP2 SSTORE PUSH1 0x1 ADD PUSH2 0xA0F JUMP JUMPDEST POP DUP1 PUSH2 0xA0F JUMP JUMPDEST CALLVALUE PUSH2 0x573 JUMPI PUSH1 0x20 CALLDATASIZE PUSH1 0x3 NOT ADD SLT PUSH2 0x573 JUMPI PUSH1 0x4 CALLDATALOAD PUSH1 0x7 SLOAD DUP2 LT ISZERO PUSH2 0x573 JUMPI PUSH2 0xA61 PUSH1 0x20 SWAP2 PUSH2 0x145C JUMP JUMPDEST SWAP1 SLOAD PUSH1 0x40 MLOAD SWAP2 PUSH1 0x3 SHL SHR DUP2 MSTORE RETURN JUMPDEST CALLVALUE PUSH2 0x573 JUMPI PUSH2 0xAA6 PUSH2 0xAB4 PUSH2 0xAC2 PUSH2 0xA8F PUSH2 0xA89 CALLDATASIZE PUSH2 0x1669 JUMP JUMPDEST SWAP1 PUSH2 0x1987 JUMP JUMPDEST SWAP2 SWAP4 SWAP1 PUSH1 0x40 MLOAD SWAP6 DUP7 SWAP6 PUSH1 0x60 DUP8 MSTORE PUSH1 0x60 DUP8 ADD SWAP1 PUSH2 0x167F JUMP JUMPDEST SWAP1 DUP6 DUP3 SUB PUSH1 0x20 DUP8 ADD MSTORE PUSH2 0x16BC JUMP JUMPDEST SWAP1 DUP4 DUP3 SUB PUSH1 0x40 DUP6 ADD MSTORE PUSH2 0x1718 JUMP JUMPDEST SUB SWAP1 RETURN JUMPDEST CALLVALUE PUSH2 0x573 JUMPI PUSH1 0x20 CALLDATASIZE PUSH1 0x3 NOT ADD SLT PUSH2 0x573 JUMPI PUSH1 0x1 PUSH1 0x1 PUSH1 0xA0 SHL SUB PUSH2 0xAE7 PUSH2 0x1446 JUMP JUMPDEST AND PUSH1 0x0 MSTORE PUSH1 0x5 PUSH1 0x20 MSTORE PUSH2 0xB2E PUSH1 0x40 PUSH1 0x0 KECCAK256 PUSH2 0xB01 DUP2 PUSH2 0x1555 JUMP JUMPDEST SWAP1 PUSH2 0xB3C PUSH1 0xFF PUSH1 0x2 PUSH2 0xB15 PUSH1 0x1 DUP6 ADD PUSH2 0x1555 JUMP JUMPDEST SWAP4 ADD SLOAD AND SWAP2 PUSH1 0x40 MLOAD SWAP5 DUP6 SWAP5 PUSH1 0x60 DUP7 MSTORE PUSH1 0x60 DUP7 ADD SWAP1 PUSH2 0x15FB JUMP JUMPDEST SWAP1 DUP5 DUP3 SUB PUSH1 0x20 DUP7 ADD MSTORE PUSH2 0x15FB JUMP JUMPDEST SWAP1 ISZERO ISZERO PUSH1 0x40 DUP4 ADD MSTORE SUB SWAP1 RETURN JUMPDEST CALLVALUE PUSH2 0x573 JUMPI PUSH1 0x20 DUP1 PUSH1 0x3 NOT CALLDATASIZE ADD SLT PUSH2 0x573 JUMPI PUSH8 0xFFFFFFFFFFFFFFFF SWAP1 PUSH1 0x4 CALLDATALOAD DUP3 DUP2 GT PUSH2 0x573 JUMPI PUSH2 0xB7C SWAP1 CALLDATASIZE SWAP1 PUSH1 0x4 ADD PUSH2 0x163B JUMP JUMPDEST SWAP2 SWAP1 SWAP2 CALLER PUSH1 0x0 MSTORE PUSH1 0x5 DUP3 MSTORE PUSH1 0x2 PUSH1 0xFF DUP2 PUSH1 0x40 PUSH1 0x0 KECCAK256 ADD SLOAD AND ISZERO PUSH2 0x549 JUMPI PUSH2 0xBA1 PUSH2 0x185A JUMP JUMPDEST DUP2 ISZERO PUSH2 0x4A1 JUMPI PUSH2 0x3E8 DUP3 GT PUSH2 0x477 JUMPI PUSH16 0xFFFFFFFFFFFFFFFFFFFFFFFFFFFFFFFF NOT DUP2 SLOAD SWAP6 PUSH16 0xFFFFFFFFFFFFFFFFFFFFFFFFFFFFFFFF SWAP4 PUSH1 0x1 SWAP8 DUP6 DUP10 DUP2 DUP4 AND ADD AND SWAP4 DUP5 SWAP2 AND OR DUP5 SSTORE PUSH4 0xFFFFFFFF SWAP2 PUSH2 0xC02 DUP4 TIMESTAMP AND SWAP9 PUSH1 0x40 MLOAD SWAP4 PUSH2 0x840 DUP6 PUSH2 0x14FB JUMP JUMPDEST SWAP1 DUP8 DUP4 ADD SWAP2 DUP3 MSTORE PUSH1 0x40 DUP4 ADD SWAP5 DUP10 DUP7 MSTORE PUSH1 0x0 MSTORE PUSH1 0x3 DUP9 MSTORE PUSH1 0x1 PUSH1 0x1 PUSH1 0xA0 SHL SUB PUSH1 0x40 PUSH1 0x0 KECCAK256 SWAP4 MLOAD AND PUSH1 0x1 PUSH1 0x1 PUSH1 0xA0 SHL SUB NOT DUP5 SLOAD AND OR DUP4 SSTORE DUP10 DUP4 ADD SWAP2 MLOAD DUP1 MLOAD SWAP2 DUP3 GT PUSH2 0x461 JUMPI PUSH2 0xC4F DUP4 SLOAD PUSH2 0x14C1 JUMP JUMPDEST PUSH1 0x1F DUP2 GT PUSH2 0xD80 JUMPI JUMPDEST POP DUP9 SWAP1 PUSH1 0x1F DUP4 GT PUSH1 0x1 EQ PUSH2 0xCE7 JUMPI SWAP2 DUP1 DUP9 SWAP8 SWAP7 SWAP6 SWAP4 SWAP3 PUSH32 0xD770237FBE5043EEE1048691F151C579CA1E2A196F23C7A1346EEC755CD3FFE3 SWAP11 SWAP10 SWAP6 SWAP4 PUSH1 0x0 SWAP3 PUSH2 0xCDC JUMPI JUMPDEST POP POP PUSH1 0x0 NOT PUSH1 0x3 DUP4 SWAP1 SHL SHR NOT AND SWAP1 DUP13 SHL OR SWAP1 SSTORE JUMPDEST ADD SWAP2 MLOAD AND PUSH4 0xFFFFFFFF NOT DUP3 SLOAD AND OR SWAP1 SSTORE PUSH2 0xCCB DUP3 DUP3 SLOAD AND PUSH2 0x17F1 JUMP JUMPDEST SLOAD AND SWAP2 PUSH1 0x40 MLOAD SWAP4 DUP5 MSTORE CALLER SWAP4 LOG3 PUSH1 0x0 SSTORE STOP JUMPDEST ADD MLOAD SWAP1 POP DUP14 DUP1 PUSH2 0xC9B JUMP JUMPDEST DUP12 SWAP3 SWAP2 PUSH1 0x1F NOT DUP4 AND SWAP2 DUP6 PUSH1 0x0 MSTORE DUP12 PUSH1 0x0 KECCAK256 SWAP3 PUSH1 0x0 JUMPDEST DUP14 DUP3 DUP3 LT PUSH2 0xD61 JUMPI POP POP SWAP2 DUP11 SWAP10 SWAP9 SWAP8 SWAP6 SWAP4 SWAP2 DUP6 PUSH32 0xD770237FBE5043EEE1048691F151C579CA1E2A196F23C7A1346EEC755CD3FFE3 SWAP14 SWAP13 SWAP9 SWAP7 SWAP5 LT PUSH2 0xD48 JUMPI JUMPDEST POP POP POP DUP2 SHL ADD SWAP1 SSTORE PUSH2 0xCAF JUMP JUMPDEST ADD MLOAD PUSH1 0x0 NOT PUSH1 0xF8 DUP5 PUSH1 0x3 SHL AND SHR NOT AND SWAP1 SSTORE DUP14 DUP1 DUP1 PUSH2 0xD3B JUMP JUMPDEST SWAP2 SWAP3 SWAP4 SWAP6 SWAP7 DUP3 SWAP2 SWAP6 DUP8 DUP7 ADD MLOAD DUP2 SSTORE ADD SWAP6 ADD SWAP4 ADD SWAP1 DUP15 SWAP6 SWAP5 SWAP4 SWAP3 SWAP2 PUSH2 0xCFC JUMP JUMPDEST DUP4 PUSH1 0x0 MSTORE DUP10 PUSH1 0x0 KECCAK256 PUSH1 0x1F DUP5 ADD PUSH1 0x5 SHR DUP2 ADD SWAP2 DUP12 DUP6 LT PUSH2 0xDBF JUMPI JUMPDEST PUSH1 0x1F ADD PUSH1 0x5 SHR ADD SWAP1 DUP13 SWAP1 JUMPDEST DUP3 DUP2 LT PUSH2 0xDB3 JUMPI POP POP PUSH2 0xC58 JUMP JUMPDEST PUSH1 0x0 DUP2 SSTORE ADD DUP13 SWAP1 PUSH2 0xDA5 JUMP JUMPDEST SWAP1 SWAP2 POP DUP2 SWAP1 PUSH2 0xD9A JUMP JUMPDEST CALLVALUE PUSH2 0x573 JUMPI PUSH1 0x0 CALLDATASIZE PUSH1 0x3 NOT ADD SLT PUSH2 0x573 JUMPI PUSH1 0x20 PUSH1 0x1 PUSH1 0x1 PUSH1 0xA0 SHL SUB PUSH1 0x1 SLOAD AND PUSH1 0x40 MLOAD SWAP1 DUP2 MSTORE RETURN JUMPDEST CALLVALUE PUSH2 0x573 JUMPI PUSH1 0x0 CALLDATASIZE PUSH1 0x3 NOT ADD SLT PUSH2 0x573 JUMPI PUSH2 0xE09 PUSH2 0x1752 JUMP JUMPDEST PUSH1 0x0 PUSH1 0x1 PUSH1 0x1 PUSH1 0xA0 SHL SUB PUSH1 0x1 SLOAD PUSH1 0x1 PUSH1 0x1 PUSH1 0xA0 SHL SUB NOT DUP2 AND PUSH1 0x1 SSTORE AND PUSH32 0x8BE0079C531659141344CD1FD0A4F28419497F9722A3DAAFE3B4186F6B6457E0 DUP3 DUP1 LOG3 STOP JUMPDEST CALLVALUE PUSH2 0x573 JUMPI PUSH1 0x20 DUP1 PUSH1 0x3 NOT CALLDATASIZE ADD SLT PUSH2 0x573 JUMPI PUSH1 0x60 SWAP1 PUSH1 0x1 PUSH1 0x1 PUSH1 0xA0 SHL SUB PUSH2 0xE70 PUSH2 0x1446 JUMP JUMPDEST PUSH1 0x0 PUSH1 0x40 DUP1 MLOAD PUSH2 0xE7F DUP2 PUSH2 0x14FB JUMP JUMPDEST DUP7 DUP2 MSTORE DUP7 DUP7 DUP3 ADD MSTORE ADD MSTORE AND PUSH1 0x0 MSTORE PUSH1 0x5 DUP2 MSTORE PUSH1 0x40 PUSH1 0x0 KECCAK256 SWAP1 PUSH2 0xF04 PUSH1 0x40 MLOAD SWAP3 PUSH2 0xEA7 DUP5 PUSH2 0x14FB JUMP JUMPDEST PUSH2 0xEB0 DUP2 PUSH2 0x1555 JUMP JUMPDEST DUP5 MSTORE PUSH2 0xEF1 PUSH1 0xFF PUSH1 0x2 PUSH2 0xEC5 PUSH1 0x1 DUP6 ADD PUSH2 0x1555 JUMP JUMPDEST SWAP4 DUP7 DUP9 ADD SWAP5 DUP6 MSTORE ADD SLOAD AND SWAP4 PUSH1 0x40 DUP7 ADD SWAP5 ISZERO ISZERO DUP6 MSTORE PUSH1 0x40 MLOAD SWAP7 DUP8 SWAP7 DUP3 DUP9 MSTORE MLOAD SWAP2 DUP8 ADD MSTORE PUSH1 0x80 DUP7 ADD SWAP1 PUSH2 0x15FB JUMP JUMPDEST SWAP1 MLOAD DUP5 DUP3 SUB PUSH1 0x1F NOT ADD PUSH1 0x40 DUP7 ADD MSTORE PUSH2 0x15FB JUMP JUMPDEST SWAP1 MLOAD ISZERO ISZERO PUSH1 0x60 DUP4 ADD MSTORE SUB SWAP1 RETURN JUMPDEST CALLVALUE PUSH2 0x573 JUMPI PUSH2 0xF1F CALLDATASIZE PUSH2 0x1669 JUMP JUMPDEST CALLER PUSH1 0x0 MSTORE PUSH1 0x5 PUSH1 0x20 MSTORE PUSH1 0xFF PUSH1 0x2 PUSH1 0x40 PUSH1 0x0 KECCAK256 ADD SLOAD AND ISZERO PUSH2 0x549 JUMPI PUSH2 0xAC2 PUSH2 0xF84 PUSH2 0xF4F PUSH2 0xF76 SWAP4 PUSH2 0xF68 SWAP6 PUSH2 0x1AA1 JUMP JUMPDEST SWAP4 SWAP3 SWAP6 SWAP1 SWAP2 PUSH1 0x40 MLOAD SWAP8 DUP9 SWAP8 PUSH1 0x80 DUP10 MSTORE PUSH1 0x80 DUP10 ADD SWAP1 PUSH2 0x167F JUMP JUMPDEST SWAP1 DUP8 DUP3 SUB PUSH1 0x20 DUP10 ADD MSTORE PUSH2 0x167F JUMP JUMPDEST SWAP1 DUP6 DUP3 SUB PUSH1 0x40 DUP8 ADD MSTORE PUSH2 0x16BC JUMP JUMPDEST SWAP1 DUP4 DUP3 SUB PUSH1 0x60 DUP6 ADD MSTORE PUSH2 0x1718 JUMP JUMPDEST CALLVALUE PUSH2 0x573 JUMPI PUSH1 0x40 CALLDATASIZE PUSH1 0x3 NOT ADD SLT PUSH2 0x573 JUMPI PUSH1 0x4 CALLDATALOAD PUSH8 0xFFFFFFFFFFFFFFFF DUP2 GT PUSH2 0x573 JUMPI PUSH2 0xFC3 SWAP1 CALLDATASIZE SWAP1 PUSH1 0x4 ADD PUSH2 0x163B JUMP JUMPDEST PUSH1 0x24 CALLDATALOAD PUSH8 0xFFFFFFFFFFFFFFFF DUP2 GT PUSH2 0x573 JUMPI PUSH2 0xFE3 SWAP1 CALLDATASIZE SWAP1 PUSH1 0x4 ADD PUSH2 0x163B JUMP JUMPDEST SWAP1 SWAP3 DUP3 ISZERO PUSH2 0x131A JUMPI DUP2 ISZERO PUSH2 0x12F0 JUMPI PUSH2 0x1009 SWAP1 PUSH1 0x40 MLOAD SWAP4 PUSH2 0x1002 DUP6 PUSH2 0x14FB JUMP JUMPDEST CALLDATASIZE SWAP2 PUSH2 0x17AA JUMP JUMPDEST DUP3 MSTORE PUSH2 0x1016 CALLDATASIZE DUP3 DUP6 PUSH2 0x17AA JUMP JUMPDEST PUSH1 0x20 DUP4 ADD MSTORE PUSH1 0x1 PUSH1 0x40 DUP4 ADD MSTORE CALLER PUSH1 0x0 MSTORE PUSH1 0x5 PUSH1 0x20 MSTORE PUSH1 0x40 PUSH1 0x0 KECCAK256 SWAP3 DUP3 MLOAD SWAP3 DUP4 MLOAD PUSH8 0xFFFFFFFFFFFFFFFF DUP2 GT PUSH2 0x461 JUMPI DUP1 PUSH2 0x1050 DUP8 SLOAD PUSH2 0x14C1 JUMP JUMPDEST SWAP6 PUSH1 0x1F SWAP7 DUP8 DUP2 GT PUSH2 0x129F JUMPI JUMPDEST POP PUSH1 0x20 SWAP1 DUP8 DUP4 GT PUSH1 0x1 EQ PUSH2 0x1239 JUMPI PUSH1 0x0 SWAP3 PUSH2 0x122E JUMPI JUMPDEST POP POP DUP2 PUSH1 0x1 SHL SWAP2 PUSH1 0x0 NOT SWAP1 PUSH1 0x3 SHL SHR NOT AND OR DUP6 SSTORE JUMPDEST PUSH1 0x1 DUP6 ADD SWAP5 PUSH1 0x20 DUP3 ADD MLOAD SWAP6 DUP7 MLOAD PUSH8 0xFFFFFFFFFFFFFFFF DUP2 GT PUSH2 0x461 JUMPI PUSH2 0x10AD DUP3 SLOAD PUSH2 0x14C1 JUMP JUMPDEST DUP8 DUP2 GT PUSH2 0x11E9 JUMPI JUMPDEST POP PUSH1 0x20 DUP8 DUP3 GT PUSH1 0x1 EQ PUSH2 0x1157 JUMPI SWAP3 PUSH1 0x40 SWAP6 SWAP5 SWAP4 SWAP3 DUP3 PUSH1 0x2 SWAP4 DUP9 SWAP6 PUSH32 0x48CAC28AD4DC618E15F4C2DD5E97751182F166DE97B25618318B2112AA951A2F SWAP12 SWAP13 PUSH1 0x0 SWAP3 PUSH2 0x114C JUMPI JUMPDEST POP POP DUP2 PUSH1 0x1 SHL SWAP2 PUSH1 0x0 NOT SWAP1 PUSH1 0x3 SHL SHR NOT AND OR SWAP1 SSTORE JUMPDEST ADD SWAP2 ADD MLOAD ISZERO ISZERO PUSH1 0xFF DUP1 NOT DUP4 SLOAD AND SWAP2 AND OR SWAP1 SSTORE DUP3 DUP3 MLOAD SWAP4 DUP5 SWAP3 PUSH1 0x20 DUP5 MSTORE DUP2 PUSH1 0x20 DUP6 ADD MSTORE DUP5 DUP5 ADD CALLDATACOPY PUSH1 0x0 DUP3 DUP3 ADD DUP5 ADD MSTORE CALLER SWAP6 ADD PUSH1 0x1F NOT AND DUP2 ADD SUB ADD SWAP1 LOG2 STOP JUMPDEST ADD MLOAD SWAP1 POP DUP13 DUP1 PUSH2 0x10FA JUMP JUMPDEST PUSH1 0x1F NOT DUP3 AND SWAP9 DUP4 PUSH1 0x0 MSTORE PUSH1 0x20 PUSH1 0x0 KECCAK256 SWAP10 PUSH1 0x0 JUMPDEST DUP2 DUP2 LT PUSH2 0x11D1 JUMPI POP DUP4 PUSH32 0x48CAC28AD4DC618E15F4C2DD5E97751182F166DE97B25618318B2112AA951A2F SWAP11 SWAP12 PUSH1 0x40 SWAP10 SWAP9 SWAP8 SWAP5 DUP11 SWAP8 SWAP5 PUSH1 0x2 SWAP8 PUSH1 0x1 SWAP6 LT PUSH2 0x11B8 JUMPI JUMPDEST POP POP POP DUP2 SHL ADD SWAP1 SSTORE PUSH2 0x110F JUMP JUMPDEST ADD MLOAD PUSH1 0x0 NOT PUSH1 0xF8 DUP5 PUSH1 0x3 SHL AND SHR NOT AND SWAP1 SSTORE DUP13 DUP1 DUP1 PUSH2 0x11AB JUMP JUMPDEST DUP4 DUP4 ADD MLOAD DUP13 SSTORE PUSH1 0x1 SWAP1 SWAP12 ADD SWAP11 PUSH1 0x20 SWAP4 DUP5 ADD SWAP4 ADD PUSH2 0x116A JUMP JUMPDEST DUP3 PUSH1 0x0 MSTORE PUSH1 0x20 PUSH1 0x0 KECCAK256 DUP9 DUP1 DUP5 ADD PUSH1 0x5 SHR DUP3 ADD SWAP3 PUSH1 0x20 DUP6 LT PUSH2 0x1225 JUMPI JUMPDEST ADD PUSH1 0x5 SHR ADD SWAP1 JUMPDEST DUP2 DUP2 LT PUSH2 0x1219 JUMPI POP PUSH2 0x10B5 JUMP JUMPDEST PUSH1 0x0 DUP2 SSTORE PUSH1 0x1 ADD PUSH2 0x120C JUMP JUMPDEST SWAP3 POP DUP2 SWAP3 PUSH2 0x1205 JUMP JUMPDEST ADD MLOAD SWAP1 POP DUP8 DUP1 PUSH2 0x1072 JUMP JUMPDEST PUSH1 0x0 DUP10 DUP2 MSTORE PUSH1 0x20 DUP2 KECCAK256 SWAP4 POP PUSH1 0x1F NOT DUP6 AND SWAP1 JUMPDEST DUP2 DUP2 LT PUSH2 0x1287 JUMPI POP SWAP1 DUP5 PUSH1 0x1 SWAP6 SWAP5 SWAP4 SWAP3 LT PUSH2 0x126E JUMPI JUMPDEST POP POP POP DUP2 SHL ADD DUP6 SSTORE PUSH2 0x1087 JUMP JUMPDEST ADD MLOAD PUSH1 0x0 NOT PUSH1 0xF8 DUP5 PUSH1 0x3 SHL AND SHR NOT AND SWAP1 SSTORE DUP8 DUP1 DUP1 PUSH2 0x1261 JUMP JUMPDEST SWAP3 SWAP4 PUSH1 0x20 PUSH1 0x1 DUP2 SWAP3 DUP8 DUP7 ADD MLOAD DUP2 SSTORE ADD SWAP6 ADD SWAP4 ADD PUSH2 0x124B JUMP JUMPDEST SWAP1 SWAP2 POP DUP8 PUSH1 0x0 MSTORE PUSH1 0x20 PUSH1 0x0 KECCAK256 DUP8 DUP1 DUP6 ADD PUSH1 0x5 SHR DUP3 ADD SWAP3 PUSH1 0x20 DUP7 LT PUSH2 0x12E7 JUMPI JUMPDEST SWAP1 DUP6 SWAP5 SWAP4 SWAP3 SWAP2 ADD PUSH1 0x5 SHR ADD SWAP1 JUMPDEST DUP2 DUP2 LT PUSH2 0x12D8 JUMPI POP PUSH2 0x105C JUMP JUMPDEST PUSH1 0x0 DUP2 SSTORE DUP5 SWAP4 POP PUSH1 0x1 ADD PUSH2 0x12CB JUMP JUMPDEST SWAP3 POP DUP2 SWAP3 PUSH2 0x12BE JUMP JUMPDEST PUSH1 0x4 PUSH1 0x40 MLOAD PUSH32 0xC15FCD5E00000000000000000000000000000000000000000000000000000000 DUP2 MSTORE REVERT JUMPDEST PUSH1 0x4 PUSH1 0x40 MLOAD PUSH32 0x4F42BE3D00000000000000000000000000000000000000000000000000000000 DUP2 MSTORE REVERT JUMPDEST CALLVALUE PUSH2 0x573 JUMPI PUSH1 0x20 CALLDATASIZE PUSH1 0x3 NOT ADD SLT PUSH2 0x573 JUMPI PUSH1 0x1 PUSH1 0x1 PUSH1 0xA0 SHL SUB PUSH2 0x1365 PUSH2 0x1446 JUMP JUMPDEST AND PUSH1 0x0 MSTORE PUSH1 0x5 PUSH1 0x20 MSTORE PUSH1 0x20 PUSH1 0xFF PUSH1 0x2 PUSH1 0x40 PUSH1 0x0 KECCAK256 ADD SLOAD AND PUSH1 0x40 MLOAD SWAP1 ISZERO ISZERO DUP2 MSTORE RETURN JUMPDEST CALLVALUE PUSH2 0x573 JUMPI PUSH1 0x20 CALLDATASIZE PUSH1 0x3 NOT ADD SLT PUSH2 0x573 JUMPI PUSH1 0x4 CALLDATALOAD PUSH1 0x0 MSTORE PUSH1 0x4 PUSH1 0x20 MSTORE PUSH1 0x40 PUSH1 0x0 KECCAK256 PUSH1 0x1 PUSH1 0x1 PUSH1 0xA0 SHL SUB DUP1 DUP3 SLOAD AND SWAP1 PUSH1 0x1 DUP4 ADD SLOAD AND SWAP2 PUSH2 0x13F4 PUSH4 0xFFFFFFFF PUSH1 0x3 PUSH2 0x13D1 PUSH1 0x2 DUP6 ADD PUSH2 0x1555 JUMP JUMPDEST SWAP4 ADD SLOAD AND SWAP2 PUSH1 0x40 MLOAD SWAP5 DUP6 SWAP5 DUP6 MSTORE PUSH1 0x20 DUP6 ADD MSTORE PUSH1 0x80 PUSH1 0x40 DUP6 ADD MSTORE PUSH1 0x80 DUP5 ADD SWAP1 PUSH2 0x15FB JUMP JUMPDEST SWAP1 PUSH1 0x60 DUP4 ADD MSTORE SUB SWAP1 RETURN JUMPDEST CALLVALUE PUSH2 0x573 JUMPI PUSH1 0x40 CALLDATASIZE PUSH1 0x3 NOT ADD SLT PUSH2 0x573 JUMPI PUSH2 0x1417 PUSH2 0x1446 JUMP JUMPDEST PUSH1 0x1 PUSH1 0x1 PUSH1 0xA0 SHL SUB PUSH1 0x24 CALLDATALOAD SWAP2 AND PUSH1 0x0 MSTORE PUSH1 0x6 PUSH1 0x20 MSTORE PUSH1 0x40 PUSH1 0x0 KECCAK256 DUP1 SLOAD DUP3 LT ISZERO PUSH2 0x573 JUMPI PUSH1 0x20 SWAP2 PUSH2 0xA61 SWAP2 PUSH2 0x14A9 JUMP JUMPDEST PUSH1 0x4 CALLDATALOAD SWAP1 PUSH1 0x1 PUSH1 0x1 PUSH1 0xA0 SHL SUB DUP3 AND DUP3 SUB PUSH2 0x573 JUMPI JUMP JUMPDEST PUSH1 0x7 SLOAD DUP2 LT ISZERO PUSH2 0x1493 JUMPI PUSH1 0x7 PUSH1 0x0 MSTORE PUSH32 0xA66CC928B5EDB82AF9BD49922954155AB7B0942694BEA4CE44661D9A8736C688 ADD SWAP1 PUSH1 0x0 SWAP1 JUMP JUMPDEST PUSH4 0x4E487B71 PUSH1 0xE0 SHL PUSH1 0x0 MSTORE PUSH1 0x32 PUSH1 0x4 MSTORE PUSH1 0x24 PUSH1 0x0 REVERT JUMPDEST DUP1 SLOAD DUP3 LT ISZERO PUSH2 0x1493 JUMPI PUSH1 0x0 MSTORE PUSH1 0x20 PUSH1 0x0 KECCAK256 ADD SWAP1 PUSH1 0x0 SWAP1 JUMP JUMPDEST SWAP1 PUSH1 0x1 DUP3 DUP2 SHR SWAP3 AND DUP1 ISZERO PUSH2 0x14F1 JUMPI JUMPDEST PUSH1 0x20 DUP4 LT EQ PUSH2 0x14DB JUMPI JUMP JUMPDEST PUSH4 0x4E487B71 PUSH1 0xE0 SHL PUSH1 0x0 MSTORE PUSH1 0x22 PUSH1 0x4 MSTORE PUSH1 0x24 PUSH1 0x0 REVERT JUMPDEST SWAP2 PUSH1 0x7F AND SWAP2 PUSH2 0x14D0 JUMP JUMPDEST PUSH1 0x60 DUP2 ADD SWAP1 DUP2 LT PUSH8 0xFFFFFFFFFFFFFFFF DUP3 GT OR PUSH2 0x461 JUMPI PUSH1 0x40 MSTORE JUMP JUMPDEST PUSH1 0x20 DUP2 ADD SWAP1 DUP2 LT PUSH8 0xFFFFFFFFFFFFFFFF DUP3 GT OR PUSH2 0x461 JUMPI PUSH1 0x40 MSTORE JUMP JUMPDEST SWAP1 PUSH1 0x1F DUP1 NOT SWAP2 ADD AND DUP2 ADD SWAP1 DUP2 LT PUSH8 0xFFFFFFFFFFFFFFFF DUP3 GT OR PUSH2 0x461 JUMPI PUSH1 0x40 MSTORE JUMP JUMPDEST SWAP1 PUSH1 0x40 MLOAD SWAP2 DUP3 PUSH1 0x0 DUP3 SLOAD SWAP3 PUSH2 0x1569 DUP5 PUSH2 0x14C1 JUMP JUMPDEST SWAP1 DUP2 DUP5 MSTORE PUSH1 0x1 SWAP5 DUP6 DUP2 AND SWAP1 DUP2 PUSH1 0x0 EQ PUSH2 0x15D8 JUMPI POP PUSH1 0x1 EQ PUSH2 0x1595 JUMPI JUMPDEST POP POP PUSH2 0x1593 SWAP3 POP SUB DUP4 PUSH2 0x1533 JUMP JUMPDEST JUMP JUMPDEST SWAP1 SWAP4 SWAP2 POP PUSH1 0x0 MSTORE PUSH1 0x20 SWAP1 DUP2 PUSH1 0x0 KECCAK256 SWAP4 PUSH1 0x0 SWAP2 JUMPDEST DUP2 DUP4 LT PUSH2 0x15C0 JUMPI POP POP PUSH2 0x1593 SWAP4 POP DUP3 ADD ADD CODESIZE DUP1 PUSH2 0x1585 JUMP JUMPDEST DUP6 SLOAD DUP9 DUP5 ADD DUP6 ADD MSTORE SWAP5 DUP6 ADD SWAP5 DUP8 SWAP5 POP SWAP2 DUP4 ADD SWAP2 PUSH2 0x15A8 JUMP JUMPDEST SWAP2 POP POP PUSH2 0x1593 SWAP5 POP PUSH1 0x20 SWAP3 POP PUSH1 0xFF NOT AND DUP3 DUP5 ADD MSTORE ISZERO ISZERO PUSH1 0x5 SHL DUP3 ADD ADD CODESIZE DUP1 PUSH2 0x1585 JUMP JUMPDEST SWAP2 SWAP1 DUP3 MLOAD SWAP3 DUP4 DUP3 MSTORE PUSH1 0x0 JUMPDEST DUP5 DUP2 LT PUSH2 0x1627 JUMPI POP POP DUP3 PUSH1 0x0 PUSH1 0x20 DUP1 SWAP5 SWAP6 DUP5 ADD ADD MSTORE PUSH1 0x1F DUP1 NOT SWAP2 ADD AND ADD ADD SWAP1 JUMP JUMPDEST PUSH1 0x20 DUP2 DUP4 ADD DUP2 ADD MLOAD DUP5 DUP4 ADD DUP3 ADD MSTORE ADD PUSH2 0x1606 JUMP JUMPDEST SWAP2 DUP2 PUSH1 0x1F DUP5 ADD SLT ISZERO PUSH2 0x573 JUMPI DUP3 CALLDATALOAD SWAP2 PUSH8 0xFFFFFFFFFFFFFFFF DUP4 GT PUSH2 0x573 JUMPI PUSH1 0x20 DUP4 DUP2 DUP7 ADD SWAP6 ADD ADD GT PUSH2 0x573 JUMPI JUMP JUMPDEST PUSH1 0x40 SWAP1 PUSH1 0x3 NOT ADD SLT PUSH2 0x573 JUMPI PUSH1 0x4 CALLDATALOAD SWAP1 PUSH1 0x24 CALLDATALOAD SWAP1 JUMP JUMPDEST SWAP1 DUP2 MLOAD DUP1 DUP3 MSTORE PUSH1 0x20 DUP1 DUP1 SWAP4 ADD SWAP4 ADD SWAP2 PUSH1 0x0 JUMPDEST DUP3 DUP2 LT PUSH2 0x169F JUMPI POP POP POP POP SWAP1 JUMP JUMPDEST DUP4 MLOAD PUSH1 0x1 PUSH1 0x1 PUSH1 0xA0 SHL SUB AND DUP6 MSTORE SWAP4 DUP2 ADD SWAP4 SWAP3 DUP2 ADD SWAP3 PUSH1 0x1 ADD PUSH2 0x1691 JUMP JUMPDEST SWAP1 DUP1 DUP3 MLOAD SWAP1 DUP2 DUP2 MSTORE PUSH1 0x20 DUP1 SWAP2 ADD SWAP3 DUP2 DUP1 DUP5 PUSH1 0x5 SHL DUP4 ADD ADD SWAP6 ADD SWAP4 PUSH1 0x0 SWAP2 JUMPDEST DUP5 DUP4 LT PUSH2 0x16EA JUMPI POP POP POP POP POP POP SWAP1 JUMP JUMPDEST SWAP1 SWAP2 SWAP3 SWAP4 SWAP5 SWAP6 DUP5 DUP1 PUSH2 0x1708 PUSH1 0x1 SWAP4 PUSH1 0x1F NOT DUP7 DUP3 SUB ADD DUP8 MSTORE DUP11 MLOAD PUSH2 0x15FB JUMP JUMPDEST SWAP9 ADD SWAP4 ADD SWAP4 ADD SWAP2 SWAP5 SWAP4 SWAP3 SWAP1 PUSH2 0x16DA JUMP JUMPDEST SWAP1 DUP2 MLOAD DUP1 DUP3 MSTORE PUSH1 0x20 DUP1 DUP1 SWAP4 ADD SWAP4 ADD SWAP2 PUSH1 0x0 JUMPDEST DUP3 DUP2 LT PUSH2 0x1738 JUMPI POP POP POP POP SWAP1 JUMP JUMPDEST DUP4 MLOAD PUSH4 0xFFFFFFFF AND DUP6 MSTORE SWAP4 DUP2 ADD SWAP4 SWAP3 DUP2 ADD SWAP3 PUSH1 0x1 ADD PUSH2 0x172A JUMP JUMPDEST PUSH1 0x1 PUSH1 0x1 PUSH1 0xA0 SHL SUB PUSH1 0x1 SLOAD AND CALLER SUB PUSH2 0x1766 JUMPI JUMP JUMPDEST PUSH1 0x64 PUSH1 0x40 MLOAD PUSH3 0x461BCD PUSH1 0xE5 SHL DUP2 MSTORE PUSH1 0x20 PUSH1 0x4 DUP3 ADD MSTORE PUSH1 0x20 PUSH1 0x24 DUP3 ADD MSTORE PUSH32 0x4F776E61626C653A2063616C6C6572206973206E6F7420746865206F776E6572 PUSH1 0x44 DUP3 ADD MSTORE REVERT JUMPDEST SWAP3 SWAP2 SWAP3 PUSH8 0xFFFFFFFFFFFFFFFF DUP3 GT PUSH2 0x461 JUMPI PUSH1 0x40 MLOAD SWAP2 PUSH2 0x17D4 PUSH1 0x1F DUP3 ADD PUSH1 0x1F NOT AND PUSH1 0x20 ADD DUP5 PUSH2 0x1533 JUMP JUMPDEST DUP3 SWAP5 DUP2 DUP5 MSTORE DUP2 DUP4 ADD GT PUSH2 0x573 JUMPI DUP3 DUP2 PUSH1 0x20 SWAP4 DUP5 PUSH1 0x0 SWAP7 ADD CALLDATACOPY ADD ADD MSTORE JUMP JUMPDEST PUSH1 0x7 SLOAD SWAP1 PUSH9 0x10000000000000000 DUP3 LT ISZERO PUSH2 0x461 JUMPI PUSH2 0x1819 DUP3 PUSH1 0x1 PUSH2 0x1593 SWAP5 ADD PUSH1 0x7 SSTORE PUSH2 0x145C JUMP JUMPDEST SWAP1 SWAP2 SWAP1 DUP3 SLOAD SWAP1 PUSH1 0x3 SHL SWAP2 DUP3 SHL SWAP2 PUSH1 0x0 NOT SWAP1 SHL NOT AND OR SWAP1 SSTORE JUMP JUMPDEST SWAP1 DUP2 SLOAD SWAP2 PUSH9 0x10000000000000000 DUP4 LT ISZERO PUSH2 0x461 JUMPI DUP3 PUSH2 0x1819 SWAP2 PUSH1 0x1 PUSH2 0x1593 SWAP6 ADD DUP2 SSTORE PUSH2 0x14A9 JUMP JUMPDEST PUSH1 0x2 PUSH1 0x0 SLOAD EQ PUSH2 0x186B JUMPI PUSH1 0x2 PUSH1 0x0 SSTORE JUMP JUMPDEST PUSH1 0x64 PUSH1 0x40 MLOAD PUSH3 0x461BCD PUSH1 0xE5 SHL DUP2 MSTORE PUSH1 0x20 PUSH1 0x4 DUP3 ADD MSTORE PUSH1 0x1F PUSH1 0x24 DUP3 ADD MSTORE PUSH32 0x5265656E7472616E637947756172643A207265656E7472616E742063616C6C00 PUSH1 0x44 DUP3 ADD MSTORE REVERT JUMPDEST PUSH8 0xFFFFFFFFFFFFFFFF DUP2 GT PUSH2 0x461 JUMPI PUSH1 0x5 SHL PUSH1 0x20 ADD SWAP1 JUMP JUMPDEST SWAP1 PUSH2 0x18D1 DUP3 PUSH2 0x18AF JUMP JUMPDEST PUSH2 0x18DE PUSH1 0x40 MLOAD SWAP2 DUP3 PUSH2 0x1533 JUMP JUMPDEST DUP3 DUP2 MSTORE DUP1 SWAP3 PUSH2 0x18EF PUSH1 0x1F NOT SWAP2 PUSH2 0x18AF JUMP JUMPDEST ADD SWAP1 PUSH1 0x20 CALLDATASIZE SWAP2 ADD CALLDATACOPY JUMP JUMPDEST SWAP1 PUSH2 0x1903 DUP3 PUSH2 0x18AF JUMP JUMPDEST PUSH2 0x1910 PUSH1 0x40 MLOAD SWAP2 DUP3 PUSH2 0x1533 JUMP JUMPDEST DUP3 DUP2 MSTORE DUP1 SWAP3 PUSH2 0x1921 PUSH1 0x1F NOT SWAP2 PUSH2 0x18AF JUMP JUMPDEST ADD SWAP1 PUSH1 0x0 JUMPDEST DUP3 DUP2 LT PUSH2 0x1932 JUMPI POP POP POP JUMP JUMPDEST DUP1 PUSH1 0x60 PUSH1 0x20 DUP1 SWAP4 DUP6 ADD ADD MSTORE ADD PUSH2 0x1926 JUMP JUMPDEST SWAP2 SWAP1 DUP3 ADD DUP1 SWAP3 GT PUSH2 0x1950 JUMPI JUMP JUMPDEST PUSH4 0x4E487B71 PUSH1 0xE0 SHL PUSH1 0x0 MSTORE PUSH1 0x11 PUSH1 0x4 MSTORE PUSH1 0x24 PUSH1 0x0 REVERT JUMPDEST SWAP2 SWAP1 DUP3 SUB SWAP2 DUP3 GT PUSH2 0x1950 JUMPI JUMP JUMPDEST DUP1 MLOAD DUP3 LT ISZERO PUSH2 0x1493 JUMPI PUSH1 0x20 SWAP2 PUSH1 0x5 SHL ADD ADD SWAP1 JUMP JUMPDEST PUSH1 0x7 SLOAD SWAP2 DUP3 DUP3 LT ISZERO PUSH2 0x1A62 JUMPI PUSH2 0x199D SWAP1 DUP3 PUSH2 0x1943 JUMP JUMPDEST DUP2 DUP4 DUP3 GT PUSH2 0x1A5A JUMPI JUMPDEST PUSH2 0x19AF SWAP2 PUSH2 0x1966 JUMP JUMPDEST SWAP3 PUSH2 0x19B9 DUP5 PUSH2 0x18C7 JUMP JUMPDEST SWAP4 PUSH2 0x19C3 DUP2 PUSH2 0x18F9 JUMP JUMPDEST SWAP4 PUSH2 0x19CD DUP3 PUSH2 0x18C7 JUMP JUMPDEST SWAP4 PUSH1 0x0 SWAP2 DUP3 JUMPDEST DUP5 DUP2 LT PUSH2 0x19E1 JUMPI POP POP POP POP POP JUMP JUMPDEST PUSH1 0x1 SWAP1 PUSH2 0x19F5 DUP5 DUP3 ADD DUP5 SUB PUSH1 0x0 NOT ADD PUSH2 0x145C JUMP JUMPDEST SWAP1 SLOAD PUSH1 0x3 SWAP2 DUP3 SHL SHR DUP7 MSTORE PUSH1 0x20 MSTORE PUSH4 0xFFFFFFFF PUSH1 0x2 PUSH1 0x40 DUP8 KECCAK256 DUP13 PUSH2 0x1A23 DUP6 PUSH1 0x1 PUSH1 0x1 PUSH1 0xA0 SHL SUB DUP5 SLOAD AND SWAP3 PUSH2 0x1973 JUMP JUMPDEST MSTORE DUP12 PUSH2 0x1A3A DUP6 PUSH2 0x1A34 DUP9 DUP6 ADD PUSH2 0x1555 JUMP JUMPDEST SWAP3 PUSH2 0x1973 JUMP JUMPDEST MSTORE PUSH2 0x1A45 DUP5 DUP14 PUSH2 0x1973 JUMP JUMPDEST POP ADD SLOAD AND PUSH2 0x1A53 DUP3 DUP11 PUSH2 0x1973 JUMP JUMPDEST MSTORE ADD PUSH2 0x19D3 JUMP JUMPDEST DUP4 SWAP2 POP PUSH2 0x19A6 JUMP JUMPDEST POP POP POP PUSH1 0x40 MLOAD PUSH2 0x1A71 DUP2 PUSH2 0x1517 JUMP JUMPDEST PUSH1 0x0 DUP2 MSTORE PUSH1 0x40 MLOAD SWAP2 PUSH2 0x1A82 DUP4 PUSH2 0x1517 JUMP JUMPDEST PUSH1 0x0 DUP4 MSTORE PUSH1 0x40 MLOAD SWAP2 PUSH2 0x1A93 DUP4 PUSH2 0x1517 JUMP JUMPDEST PUSH1 0x0 DUP4 MSTORE PUSH1 0x0 CALLDATASIZE DUP2 CALLDATACOPY SWAP3 SWAP2 SWAP1 JUMP JUMPDEST SWAP2 SWAP1 SWAP2 PUSH1 0x0 SWAP3 CALLER DUP5 MSTORE PUSH1 0x20 SWAP3 PUSH1 0x6 DUP5 MSTORE PUSH1 0x40 DUP1 DUP7 KECCAK256 SWAP5 DUP6 SLOAD SWAP4 DUP5 DUP7 LT ISZERO PUSH2 0x1BBC JUMPI PUSH2 0x1ACC SWAP1 DUP7 PUSH2 0x1943 JUMP JUMPDEST DUP6 DUP6 DUP3 GT PUSH2 0x1BB4 JUMPI JUMPDEST PUSH2 0x1ADE SWAP2 PUSH2 0x1966 JUMP JUMPDEST SWAP2 PUSH2 0x1AE8 DUP4 PUSH2 0x18C7 JUMP JUMPDEST SWAP8 PUSH2 0x1AF2 DUP5 PUSH2 0x18C7 JUMP JUMPDEST SWAP8 PUSH2 0x1AFC DUP6 PUSH2 0x18F9 JUMP JUMPDEST SWAP8 PUSH2 0x1B06 DUP7 PUSH2 0x18C7 JUMP JUMPDEST SWAP8 DUP12 DUP5 JUMPDEST DUP12 DUP14 DUP11 DUP4 LT PUSH2 0x1B20 JUMPI POP POP POP POP POP POP POP POP POP POP POP JUMP JUMPDEST PUSH1 0x1 SWAP4 PUSH2 0x1B9D DUP5 PUSH4 0xFFFFFFFF SWAP5 DUP14 SWAP5 PUSH2 0x1B80 DUP4 DUP16 DUP16 DUP16 DUP16 DUP16 SWAP2 PUSH2 0x1B4F SWAP2 PUSH1 0x4 SWAP4 DUP8 PUSH1 0x0 NOT SWAP3 ADD SWAP1 SUB ADD SWAP1 PUSH2 0x14A9 JUMP JUMPDEST SWAP12 SWAP1 SLOAD PUSH1 0x3 SWAP13 DUP14 SHL SHR DUP4 MSTORE MSTORE KECCAK256 SWAP7 PUSH1 0x1 PUSH1 0x1 PUSH1 0xA0 SHL SUB SWAP1 PUSH2 0x1B74 DUP4 DUP4 DUP12 SLOAD AND SWAP3 PUSH2 0x1973 JUMP JUMPDEST MSTORE DUP12 DUP9 ADD SLOAD AND SWAP3 PUSH2 0x1973 JUMP JUMPDEST MSTORE PUSH2 0x1B8D PUSH1 0x2 DUP6 ADD PUSH2 0x1555 JUMP JUMPDEST PUSH2 0x1B97 DUP4 DUP4 PUSH2 0x1973 JUMP JUMPDEST MSTORE PUSH2 0x1973 JUMP JUMPDEST POP ADD SLOAD AND PUSH2 0x1BAB DUP3 DUP14 PUSH2 0x1973 JUMP JUMPDEST MSTORE ADD DUP13 SWAP1 PUSH2 0x1B0A JUMP JUMPDEST DUP6 SWAP2 POP PUSH2 0x1AD5 JUMP JUMPDEST POP POP SWAP4 POP SWAP4 SWAP2 POP POP DUP2 MLOAD SWAP3 PUSH2 0x1BD0 DUP5 PUSH2 0x1517 JUMP JUMPDEST DUP2 DUP5 MSTORE DUP3 MLOAD SWAP4 PUSH2 0x1BDF DUP6 PUSH2 0x1517 JUMP JUMPDEST DUP3 DUP6 MSTORE DUP4 MLOAD SWAP4 PUSH2 0x1BEE DUP6 PUSH2 0x1517 JUMP JUMPDEST DUP4 DUP6 MSTORE MLOAD SWAP3 PUSH2 0x1BFC DUP5 PUSH2 0x1517 JUMP JUMPDEST DUP1 DUP5 MSTORE CALLDATASIZE DUP2 CALLDATACOPY SWAP4 SWAP3 SWAP2 SWAP1 JUMP JUMPDEST SWAP2 SWAP1 DUP2 LT ISZERO PUSH2 0x1493 JUMPI PUSH1 0x5 SHL DUP2 ADD CALLDATALOAD SWAP1 PUSH1 0x1E NOT DUP2 CALLDATASIZE SUB ADD DUP3 SLT ISZERO PUSH2 0x573 JUMPI ADD SWAP1 DUP2 CALLDATALOAD SWAP2 PUSH8 0xFFFFFFFFFFFFFFFF DUP4 GT PUSH2 0x573 JUMPI PUSH1 0x20 ADD DUP3 CALLDATASIZE SUB DUP2 SGT PUSH2 0x573 JUMPI SWAP2 SWAP1 JUMP INVALID LOG2 PUSH5 0x6970667358 0x22 SLT KECCAK256 0x1E 0x5F 0xE0 DUP3 0xA8 0xA5 0xBD PUSH32 0xF8A0E75FFB38F7AB4F65F9A6F908C33EE761A49CE5CBCB7364736F6C63430008 SGT STOP CALLER "},"methodIdentifiers":{"allPublicMessageIds(uint256)":"c2b30c0a","batchSendPublicMessages(string[])":"dc4726b2","getPrivateMessages(uint256,uint256)":"4db6ee38","getPublicMessages(uint256,uint256)":"b6d6c94c","getTotalPrivateMessages()":"dcbb8ed9","getTotalPublicMessages()":"dd1ae75c","getUser(address)":"6f77926b","isUserRegistered(address)":"163f7522","owner()":"8da5cb5b","privateMessages(uint256)":"163036a1","publicMessages(uint256)":"f45d29b1","registerUser(string,string)":"1d2e4afd","renounceOwnership()":"715018a6","sendPrivateMessage(address,string)":"fae3bba7","sendPublicMessage(string)":"9b2d7342","transferOwnership(address)":"f2fde38b","userPrivateMessages(address,uint256)":"100517be","users(address)":"a87430ba"}}}}}