{
  "_format": "hh-sol-artifact-1",
  "contractName": "FluentMessaging",
  "sourceName": "contracts/FluentMessaging.sol",
  "abi": [
    {
      "inputs": [],
      "stateMutability": "nonpayable",
      "type": "constructor"
    },
    {
      "inputs": [],
      "name": "CannotMessageSelf",
      "type": "error"
    },
    {
      "inputs": [],
      "name": "EmptyMessage",
      "type": "error"
    },
    {
      "inputs": [],
      "name": "EmptyNickname",
      "type": "error"
    },
    {
      "inputs": [],
      "name": "EmptyPublicKey",
      "type": "error"
    },
    {
      "inputs": [],
      "name": "InvalidReceiver",
      "type": "error"
    },
    {
      "inputs": [],
      "name": "MessageTooLong",
      "type": "error"
    },
    {
      "inputs": [],
      "name": "ReceiverNotRegistered",
      "type": "error"
    },
    {
      "inputs": [],
      "name": "UserNotRegistered",
      "type": "error"
    },
    {
      "anonymous": false,
      "inputs": [
        {
          "indexed": true,
          "internalType": "address",
          "name": "previousOwner",
          "type": "address"
        },
        {
          "indexed": true,
          "internalType": "address",
          "name": "newOwner",
          "type": "address"
        }
      ],
      "name": "OwnershipTransferred",
      "type": "event"
    },
    {
      "anonymous": false,
      "inputs": [
        {
          "indexed": true,
          "internalType": "uint256",
          "name": "messageId",
          "type": "uint256"
        },
        {
          "indexed": true,
          "internalType": "address",
          "name": "sender",
          "type": "address"
        },
        {
          "indexed": true,
          "internalType": "address",
          "name": "receiver",
          "type": "address"
        },
        {
          "indexed": false,
          "internalType": "uint32",
          "name": "timestamp",
          "type": "uint32"
        }
      ],
      "name": "PrivateMessageSent",
      "type": "event"
    },
    {
      "anonymous": false,
      "inputs": [
        {
          "indexed": true,
          "internalType": "uint256",
          "name": "messageId",
          "type": "uint256"
        },
        {
          "indexed": true,
          "internalType": "address",
          "name": "sender",
          "type": "address"
        },
        {
          "indexed": false,
          "internalType": "uint32",
          "name": "timestamp",
          "type": "uint32"
        }
      ],
      "name": "PublicMessageSent",
      "type": "event"
    },
    {
      "anonymous": false,
      "inputs": [
        {
          "indexed": true,
          "internalType": "address",
          "name": "user",
          "type": "address"
        },
        {
          "indexed": false,
          "internalType": "string",
          "name": "nickname",
          "type": "string"
        }
      ],
      "name": "UserRegistered",
      "type": "event"
    },
    {
      "inputs": [
        {
          "internalType": "uint256",
          "name": "",
          "type": "uint256"
        }
      ],
      "name": "allPublicMessageIds",
      "outputs": [
        {
          "internalType": "uint256",
          "name": "",
          "type": "uint256"
        }
      ],
      "stateMutability": "view",
      "type": "function"
    },
    {
      "inputs": [
        {
          "internalType": "string[]",
          "name": "_contents",
          "type": "string[]"
        }
      ],
      "name": "batchSendPublicMessages",
      "outputs": [],
      "stateMutability": "nonpayable",
      "type": "function"
    },
    {
      "inputs": [
        {
          "internalType": "uint256",
          "name": "_offset",
          "type": "uint256"
        },
        {
          "internalType": "uint256",
          "name": "_limit",
          "type": "uint256"
        }
      ],
      "name": "getPrivateMessages",
      "outputs": [
        {
          "internalType": "address[]",
          "name": "senders",
          "type": "address[]"
        },
        {
          "internalType": "address[]",
          "name": "receivers",
          "type": "address[]"
        },
        {
          "internalType": "string[]",
          "name": "encryptedContents",
          "type": "string[]"
        },
        {
          "internalType": "uint32[]",
          "name": "timestamps",
          "type": "uint32[]"
        }
      ],
      "stateMutability": "view",
      "type": "function"
    },
    {
      "inputs": [
        {
          "internalType": "uint256",
          "name": "_offset",
          "type": "uint256"
        },
        {
          "internalType": "uint256",
          "name": "_limit",
          "type": "uint256"
        }
      ],
      "name": "getPublicMessages",
      "outputs": [
        {
          "internalType": "address[]",
          "name": "senders",
          "type": "address[]"
        },
        {
          "internalType": "string[]",
          "name": "contents",
          "type": "string[]"
        },
        {
          "internalType": "uint32[]",
          "name": "timestamps",
          "type": "uint32[]"
        }
      ],
      "stateMutability": "view",
      "type": "function"
    },
    {
      "inputs": [],
      "name": "getTotalPrivateMessages",
      "outputs": [
        {
          "internalType": "uint256",
          "name": "",
          "type": "uint256"
        }
      ],
      "stateMutability": "view",
      "type": "function"
    },
    {
      "inputs": [],
      "name": "getTotalPublicMessages",
      "outputs": [
        {
          "internalType": "uint256",
          "name": "",
          "type": "uint256"
        }
      ],
      "stateMutability": "view",
      "type": "function"
    },
    {
      "inputs": [
        {
          "internalType": "address",
          "name": "_user",
          "type": "address"
        }
      ],
      "name": "getUser",
      "outputs": [
        {
          "components": [
            {
              "internalType": "string",
              "name": "publicKey",
              "type": "string"
            },
            {
              "internalType": "string",
              "name": "nickname",
              "type": "string"
            },
            {
              "internalType": "bool",
              "name": "isRegistered",
              "type": "bool"
            }
          ],
          "internalType": "struct FluentMessaging.User",
          "name": "",
          "type": "tuple"
        }
      ],
      "stateMutability": "view",
      "type": "function"
    },
    {
      "inputs": [
        {
          "internalType": "address",
          "name": "_user",
          "type": "address"
        }
      ],
      "name": "isUserRegistered",
      "outputs": [
        {
          "internalType": "bool",
          "name": "",
          "type": "bool"
        }
      ],
      "stateMutability": "view",
      "type": "function"
    },
    {
      "inputs": [],
      "name": "owner",
      "outputs": [
        {
          "internalType": "address",
          "name": "",
          "type": "address"
        }
      ],
      "stateMutability": "view",
      "type": "function"
    },
    {
      "inputs": [
        {
          "internalType": "uint256",
          "name": "",
          "type": "uint256"
        }
      ],
      "name": "privateMessages",
      "outputs": [
        {
          "internalType": "address",
          "name": "sender",
          "type": "address"
        },
        {
          "internalType": "address",
          "name": "receiver",
          "type": "address"
        },
        {
          "internalType": "string",
          "name": "encryptedContent",
          "type": "string"
        },
        {
          "internalType": "uint32",
          "name": "timestamp",
          "type": "uint32"
        }
      ],
      "stateMutability": "view",
      "type": "function"
    },
    {
      "inputs": [
        {
          "internalType": "uint256",
          "name": "",
          "type": "uint256"
        }
      ],
      "name": "publicMessages",
      "outputs": [
        {
          "internalType": "address",
          "name": "sender",
          "type": "address"
        },
        {
          "internalType": "string",
          "name": "content",
          "type": "string"
        },
        {
          "internalType": "uint32",
          "name": "timestamp",
          "type": "uint32"
        }
      ],
      "stateMutability": "view",
      "type": "function"
    },
    {
      "inputs": [
        {
          "internalType": "string",
          "name": "_publicKey",
          "type": "string"
        },
        {
          "internalType": "string",
          "name": "_nickname",
          "type": "string"
        }
      ],
      "name": "registerUser",
      "outputs": [],
      "stateMutability": "nonpayable",
      "type": "function"
    },
    {
      "inputs": [],
      "name": "renounceOwnership",
      "outputs": [],
      "stateMutability": "nonpayable",
      "type": "function"
    },
    {
      "inputs": [
        {
          "internalType": "address",
          "name": "_receiver",
          "type": "address"
        },
        {
          "internalType": "string",
          "name": "_encryptedContent",
          "type": "string"
        }
      ],
      "name": "sendPrivateMessage",
      "outputs": [],
      "stateMutability": "nonpayable",
      "type": "function"
    },
    {
      "inputs": [
        {
          "internalType": "string",
          "name": "_content",
          "type": "string"
        }
      ],
      "name": "sendPublicMessage",
      "outputs": [],
      "stateMutability": "nonpayable",
      "type": "function"
    },
    {
      "inputs": [
        {
          "internalType": "address",
          "name": "newOwner",
          "type": "address"
        }
      ],
      "name": "transferOwnership",
      "outputs": [],
      "stateMutability": "nonpayable",
      "type": "function"
    },
    {
      "inputs": [
        {
          "internalType": "address",
          "name": "",
          "type": "address"
        },
        {
          "internalType": "uint256",
          "name": "",
          "type": "uint256"
        }
      ],
      "name": "userPrivateMessages",
      "outputs": [
        {
          "internalType": "uint256",
          "name": "",
          "type": "uint256"
        }
      ],
      "stateMutability": "view",
      "type": "function"
    },
    {
      "inputs": [
        {
          "internalType": "address",
          "name": "",
          "type": "address"
        }
      ],
      "name": "users",
      "outputs": [
        {
          "internalType": "string",
          "name": "publicKey",
          "type": "string"
        },
        {
          "internalType": "string",
          "name": "nickname",
          "type": "string"
        },
        {
          "internalType": "bool",
          "name": "isRegistered",
          "type": "bool"
        }
      ],
      "stateMutability": "view",
      "type": "function"
    }
  ],
  "bytecode": "0x6080806040523461005e57600160008181558154336001600160a01b0319821681179093556001600160a01b0316907f8be0079c531659141344cd1fd0a4f28419497f9722a3daafe3b4186f6b6457e09080a3611c8090816100648239f35b600080fdfe6080604052600436101561001257600080fd5b60003560e01c8063100517be146113fe578063163036a114611386578063163f7522146113445780631d2e4afd14610f925780634db6ee3814610f115780636f77926b14610e4b578063715018a614610df05780638da5cb5b14610dc95780639b2d734214610b48578063a87430ba14610ac6578063b6d6c94c14610a6f578063c2b30c0a14610a38578063dc4726b21461071b578063dcbb8ed9146106d7578063dd1ae75c146106b9578063f2fde38b146105e1578063f45d29b1146105785763fae3bba7146100e257600080fd5b34610573576040366003190112610573576100fb611446565b60243567ffffffffffffffff81116105735761011b90369060040161163b565b33600052600560205260ff60026040600020015416156105495761013d61185a565b6001600160a01b0383161561051f57336001600160a01b038416146104f5576001600160a01b038316600052600560205260ff60026040600020015416156104cb5780156104a1576107d0811161047757600254906fffffffffffffffffffffffffffffffff1960018360801c0160801b166fffffffffffffffffffffffffffffffff83161760025560405192608084019184831067ffffffffffffffff84111761046157610202926040523385526001600160a01b038616602086015236916117aa565b604083015263ffffffff421660608301526fffffffffffffffffffffffffffffffff6fffffffffffffffffffffffffffffffff1960018360801c0160801b1691161760801c600052600460205260406000206001600160a01b038251166001600160a01b0319908183541617825560018201906001600160a01b0360208501511690825416179055604082015180519067ffffffffffffffff8211610461576102ae60028401546114c1565b601f8111610416575b50602090601f831160011461039d57928260609360039363ffffffff96600092610392575b50508160011b9160001990851b1c19161760028201555b019201511663ffffffff19825416179055336000526006602052610321604060002060025460801c90611832565b6001600160a01b0381166000526006602052610347604060002060025460801c90611832565b60025460801c906001600160a01b036040519163ffffffff4216835216917fb1c864ed9e766e43ee42aaba181a0b9ec4d82c1b80377ee99cf5699722dfc41960203393a46001600055005b0151905038806102dc565b906002840160005260206000209160005b601f19851681106103fe57508360039363ffffffff9693600193606097601f198116106103e6575b505050811b0160028201556102f3565b015160001983871b60f8161c191690553880806103d6565b919260206001819286850151815501940192016103ae565b600284016000526020600020601f840160051c81019160208510610457575b601f0160051c01905b81811061044b57506102b7565b6000815560010161043e565b9091508190610435565b634e487b7160e01b600052604160045260246000fd5b60046040517f8fd168ea000000000000000000000000000000000000000000000000000000008152fd5b60046040517fbb1b6580000000000000000000000000000000000000000000000000000000008152fd5b60046040517fdf42c863000000000000000000000000000000000000000000000000000000008152fd5b60046040517fa5b99c89000000000000000000000000000000000000000000000000000000008152fd5b60046040517f1e4ec46b000000000000000000000000000000000000000000000000000000008152fd5b60046040517f2163950f000000000000000000000000000000000000000000000000000000008152fd5b600080fd5b3461057357602036600319011261057357600435600052600360205260406000206001600160a01b0381541663ffffffff60026105b760018501611555565b930154166105d760405193849384526060602085015260608401906115fb565b9060408301520390f35b34610573576020366003190112610573576105fa611446565b610602611752565b6001600160a01b0380911690811561064f57600154826001600160a01b0319821617600155167f8be0079c531659141344cd1fd0a4f28419497f9722a3daafe3b4186f6b6457e0600080a3005b608460405162461bcd60e51b815260206004820152602660248201527f4f776e61626c653a206e6577206f776e657220697320746865207a65726f206160448201527f64647265737300000000000000000000000000000000000000000000000000006064820152fd5b34610573576000366003190112610573576020600754604051908152f35b346105735760003660031901126105735733600052600560205260ff6002604060002001541615610549573360005260066020526020604060002054604051908152f35b346105735760203660031901126105735760043567ffffffffffffffff811161057357366023820112156105735767ffffffffffffffff81600401351161057357366024826004013560051b830101116105735733600052600560205260ff60026040600020015416156105495761079161185a565b600a8160040135116104775760005b816004013581106107b2576001600055005b6107c481836004013560248501611c08565b9050156104a1576103e86107e082846004013560248601611c08565b9050116104775761084a6fffffffffffffffffffffffffffffffff196002546fffffffffffffffffffffffffffffffff60018183160116918291161760025561083183856004013560248701611c08565b929060405193610840856114fb565b33855236916117aa565b906020830191825263ffffffff4216604084015260005260036020526040600020906001600160a01b038351166001600160a01b03198354161782555180519067ffffffffffffffff8211610461576108a660018401546114c1565b601f81116109f1575b50602090601f83116001146109755760019594938363ffffffff9460409460029460009261096a575b5050600019600383901b1c191690881b17818801555b019201511663ffffffff1982541617905561091c6fffffffffffffffffffffffffffffffff600254166117f1565b6fffffffffffffffffffffffffffffffff600254166040519063ffffffff421682527fd770237fbe5043eee1048691f151c579ca1e2a196f23c7a1346eec755cd3ffe360203393a3016107a0565b015190508a806108d8565b906001840160005260206000209160005b601f19851681106109d9575093600184604094600294839a999863ffffffff98601f198116106109c0575b505050811b01878201556108ee565b015160001960f88460031b161c191690558a80806109b1565b91926020600181928685015181550194019201610986565b600184016000526020600020601f840160051c810160208510610a31575b601f830160051c82018110610a255750506108af565b60008155600101610a0f565b5080610a0f565b346105735760203660031901126105735760043560075481101561057357610a6160209161145c565b90546040519160031b1c8152f35b3461057357610aa6610ab4610ac2610a8f610a8936611669565b90611987565b91939060405195869560608752606087019061167f565b9085820360208701526116bc565b908382036040850152611718565b0390f35b34610573576020366003190112610573576001600160a01b03610ae7611446565b166000526005602052610b2e6040600020610b0181611555565b90610b3c60ff6002610b1560018501611555565b93015416916040519485946060865260608601906115fb565b9084820360208601526115fb565b90151560408301520390f35b34610573576020806003193601126105735767ffffffffffffffff9060043582811161057357610b7c90369060040161163b565b9190913360005260058252600260ff8160406000200154161561054957610ba161185a565b81156104a1576103e88211610477576fffffffffffffffffffffffffffffffff198154956fffffffffffffffffffffffffffffffff93600197858981831601169384911617845563ffffffff91610c028342169860405193610840856114fb565b908783019182526040830194898652600052600388526001600160a01b0360406000209351166001600160a01b03198454161783558983019151805191821161046157610c4f83546114c1565b601f8111610d80575b508890601f8311600114610ce75791808897969593927fd770237fbe5043eee1048691f151c579ca1e2a196f23c7a1346eec755cd3ffe39a999593600092610cdc575b5050600019600383901b1c1916908c1b1790555b0191511663ffffffff19825416179055610ccb828254166117f1565b5416916040519384523393a3600055005b015190508d80610c9b565b8b9291601f19831691856000528b6000209260005b8d828210610d61575050918a999897959391857fd770237fbe5043eee1048691f151c579ca1e2a196f23c7a1346eec755cd3ffe39d9c98969410610d48575b505050811b019055610caf565b015160001960f88460031b161c191690558d8080610d3b565b91929395968291958786015181550195019301908e9594939291610cfc565b8360005289600020601f840160051c8101918b8510610dbf575b601f0160051c01908c905b828110610db3575050610c58565b60008155018c90610da5565b9091508190610d9a565b346105735760003660031901126105735760206001600160a01b0360015416604051908152f35b3461057357600036600319011261057357610e09611752565b60006001600160a01b036001546001600160a01b03198116600155167f8be0079c531659141344cd1fd0a4f28419497f9722a3daafe3b4186f6b6457e08280a3005b3461057357602080600319360112610573576060906001600160a01b03610e70611446565b600060408051610e7f816114fb565b868152868682015201521660005260058152604060002090610f0460405192610ea7846114fb565b610eb081611555565b8452610ef160ff6002610ec560018501611555565b9386880194855201541693604086019415158552604051968796828852519187015260808601906115fb565b9051848203601f190160408601526115fb565b9051151560608301520390f35b3461057357610f1f36611669565b33600052600560205260ff600260406000200154161561054957610ac2610f84610f4f610f7693610f6895611aa1565b939295909160405197889760808952608089019061167f565b90878203602089015261167f565b9085820360408701526116bc565b908382036060850152611718565b346105735760403660031901126105735760043567ffffffffffffffff811161057357610fc390369060040161163b565b60243567ffffffffffffffff811161057357610fe390369060040161163b565b9092821561131a5781156112f0576110099060405193611002856114fb565b36916117aa565b82526110163682856117aa565b602083015260016040830152336000526005602052604060002092825192835167ffffffffffffffff8111610461578061105087546114c1565b95601f9687811161129f575b506020908783116001146112395760009261122e575b50508160011b916000199060031b1c19161785555b6001850194602082015195865167ffffffffffffffff8111610461576110ad82546114c1565b8781116111e9575b50602087821160011461115757926040959493928260029388957f48cac28ad4dc618e15f4c2dd5e97751182f166de97b25618318b2112aa951a2f9b9c60009261114c575b50508160011b916000199060031b1c19161790555b01910151151560ff8019835416911617905582825193849260208452816020850152848401376000828201840152339501601f19168101030190a2005b015190508c806110fa565b601f198216988360005260206000209960005b8181106111d15750837f48cac28ad4dc618e15f4c2dd5e97751182f166de97b25618318b2112aa951a2f9a9b6040999897948a9794600297600195106111b8575b505050811b01905561110f565b015160001960f88460031b161c191690558c80806111ab565b838301518c556001909b019a6020938401930161116a565b8260005260206000208880840160051c82019260208510611225575b0160051c01905b81811061121957506110b5565b6000815560010161120c565b92508192611205565b015190508780611072565b6000898152602081209350601f198516905b818110611287575090846001959493921061126e575b505050811b018555611087565b015160001960f88460031b161c19169055878080611261565b9293602060018192878601518155019501930161124b565b9091508760005260206000208780850160051c820192602086106112e7575b9085949392910160051c01905b8181106112d8575061105c565b600081558493506001016112cb565b925081926112be565b60046040517fc15fcd5e000000000000000000000000000000000000000000000000000000008152fd5b60046040517f4f42be3d000000000000000000000000000000000000000000000000000000008152fd5b34610573576020366003190112610573576001600160a01b03611365611446565b166000526005602052602060ff600260406000200154166040519015158152f35b3461057357602036600319011261057357600435600052600460205260406000206001600160a01b038082541690600183015416916113f463ffffffff60036113d160028501611555565b9301541691604051948594855260208501526080604085015260808401906115fb565b9060608301520390f35b3461057357604036600319011261057357611417611446565b6001600160a01b03602435911660005260066020526040600020805482101561057357602091610a61916114a9565b600435906001600160a01b038216820361057357565b6007548110156114935760076000527fa66cc928b5edb82af9bd49922954155ab7b0942694bea4ce44661d9a8736c6880190600090565b634e487b7160e01b600052603260045260246000fd5b80548210156114935760005260206000200190600090565b90600182811c921680156114f1575b60208310146114db57565b634e487b7160e01b600052602260045260246000fd5b91607f16916114d0565b6060810190811067ffffffffffffffff82111761046157604052565b6020810190811067ffffffffffffffff82111761046157604052565b90601f8019910116810190811067ffffffffffffffff82111761046157604052565b9060405191826000825492611569846114c1565b9081845260019485811690816000146115d85750600114611595575b505061159392500383611533565b565b9093915060005260209081600020936000915b8183106115c057505061159393508201013880611585565b855488840185015294850194879450918301916115a8565b91505061159394506020925060ff191682840152151560051b8201013880611585565b919082519283825260005b848110611627575050826000602080949584010152601f8019910116010190565b602081830181015184830182015201611606565b9181601f840112156105735782359167ffffffffffffffff8311610573576020838186019501011161057357565b6040906003190112610573576004359060243590565b90815180825260208080930193019160005b82811061169f575050505090565b83516001600160a01b031685529381019392810192600101611691565b908082519081815260208091019281808460051b8301019501936000915b8483106116ea5750505050505090565b9091929394958480611708600193601f198682030187528a516115fb565b98019301930191949392906116da565b90815180825260208080930193019160005b828110611738575050505090565b835163ffffffff168552938101939281019260010161172a565b6001600160a01b0360015416330361176657565b606460405162461bcd60e51b815260206004820152602060248201527f4f776e61626c653a2063616c6c6572206973206e6f7420746865206f776e65726044820152fd5b92919267ffffffffffffffff821161046157604051916117d4601f8201601f191660200184611533565b829481845281830111610573578281602093846000960137010152565b600754906801000000000000000082101561046157611819826001611593940160075561145c565b90919082549060031b91821b91600019901b1916179055565b90815491680100000000000000008310156104615782611819916001611593950181556114a9565b60026000541461186b576002600055565b606460405162461bcd60e51b815260206004820152601f60248201527f5265656e7472616e637947756172643a207265656e7472616e742063616c6c006044820152fd5b67ffffffffffffffff81116104615760051b60200190565b906118d1826118af565b6118de6040519182611533565b82815280926118ef601f19916118af565b0190602036910137565b90611903826118af565b6119106040519182611533565b8281528092611921601f19916118af565b019060005b82811061193257505050565b806060602080938501015201611926565b9190820180921161195057565b634e487b7160e01b600052601160045260246000fd5b9190820391821161195057565b80518210156114935760209160051b010190565b6007549182821015611a625761199d9082611943565b81838211611a5a575b6119af91611966565b926119b9846118c7565b936119c3816118f9565b936119cd826118c7565b93600091825b8481106119e1575050505050565b6001906119f584820184036000190161145c565b9054600391821b1c865260205263ffffffff6002604087208c611a23856001600160a01b0384541692611973565b528b611a3a85611a34888501611555565b92611973565b52611a45848d611973565b50015416611a53828a611973565b52016119d3565b8391506119a6565b505050604051611a7181611517565b6000815260405191611a8283611517565b6000835260405191611a9383611517565b600083526000368137929190565b9190916000923384526020926006845260408086209485549384861015611bbc57611acc9086611943565b85858211611bb4575b611ade91611966565b91611ae8836118c7565b97611af2846118c7565b97611afc856118f9565b97611b06866118c7565b978b845b8b8d8a8310611b20575050505050505050505050565b600193611b9d8463ffffffff948d94611b80838f8f8f8f8f91611b4f91600493876000199201900301906114a9565b9b905460039c8d1b1c83525220966001600160a01b0390611b7483838b541692611973565b528b8801541692611973565b52611b8d60028501611555565b611b978383611973565b52611973565b50015416611bab828d611973565b52018c90611b0a565b859150611ad5565b5050935093915050815192611bd084611517565b818452825193611bdf85611517565b828552835193611bee85611517565b8385525192611bfc84611517565b80845236813793929190565b91908110156114935760051b81013590601e198136030182121561057357019081359167ffffffffffffffff831161057357602001823603811361057357919056fea26469706673582212201e5fe082a8a5bd7ff8a0e75ffb38f7ab4f65f9a6f908c33ee761a49ce5cbcb7364736f6c63430008130033",
  "linkReferences": {},
  "deployedLinkReferences": {}
}